{
  "transactions": [
    {
      "hash": "0x36933ed0d06c49ae7490e1e4236cfa90978db09eb4d5910a8d37b5e67785a7fd",
      "transactionType": "CREATE",
      "contractName": "Fundify",
      "contractAddress": "0x700b6a60ce7eaaea56f065753d8dcb9653dbad35",
      "function": null,
      "arguments": null,
      "transaction": {
        "from": "0xa0ee7a142d267c1f36714e4a8f75612f20a79720",
        "gas": "0x23bc3a",
        "value": "0x0",
        "input": "0x60a06040523073ffffffffffffffffffffffffffffffffffffffff1660809073ffffffffffffffffffffffffffffffffffffffff168152503480156041575f5ffd5b50608051611fc16100685f395f8181610f2301528181610f7801526111320152611fc15ff3fe6080604052600436106100dc575f3560e01c8063715018a61161007e5780638da5cb5b116100585780638da5cb5b1461028d578063ad3cb1cc146102b7578063f16fd392146102e1578063f2fde38b146102fd576100dc565b8063715018a6146102205780637ecdd3c5146102365780638129fc1c14610277576100dc565b80634f1ef286116100ba5780634f1ef2861461016257806352d1902d1461017e5780636608f47c146101a85780636e4e2df7146101e4576100dc565b806302da667b146100e05780633e6d9770146101085780634491629b14610146575b5f5ffd5b3480156100eb575f5ffd5b50610106600480360381019061010191906117e0565b610325565b005b348015610113575f5ffd5b5061012e60048036038101906101299190611878565b6104f8565b60405161013d939291906118d4565b60405180910390f35b610160600480360381019061015b9190611878565b610548565b005b61017c60048036038101906101779190611a45565b6108ad565b005b348015610189575f5ffd5b506101926108cc565b60405161019f9190611ab7565b60405180910390f35b3480156101b3575f5ffd5b506101ce60048036038101906101c99190611ad0565b6108fd565b6040516101db9190611afb565b60405180910390f35b3480156101ef575f5ffd5b5061020a60048036038101906102059190611ad0565b610912565b6040516102179190611afb565b60405180910390f35b34801561022b575f5ffd5b50610234610927565b005b348015610241575f5ffd5b5061025c60048036038101906102579190611878565b61093a565b60405161026e96959493929190611b14565b60405180910390f35b348015610282575f5ffd5b5061028b61099b565b005b348015610298575f5ffd5b506102a1610b23565b6040516102ae9190611b73565b60405180910390f35b3480156102c2575f5ffd5b506102cb610b58565b6040516102d89190611bec565b60405180910390f35b6102fb60048036038101906102f69190611c0c565b610b91565b005b348015610308575f5ffd5b50610323600480360381019061031e9190611ad0565b610e9d565b005b5f820361035e576040517fdf58725600000000000000000000000000000000000000000000000000000000815260040160405180910390fd5b5f81148061036c5750600581115b156103a3576040517f2e54973a00000000000000000000000000000000000000000000000000000000815260040160405180910390fd5b5f60015f3373ffffffffffffffffffffffffffffffffffffffff1673ffffffffffffffffffffffffffffffffffffffff1681526020019081526020015f205f8154809291906103f190611c89565b9190505590505f5f5f3373ffffffffffffffffffffffffffffffffffffffff1673ffffffffffffffffffffffffffffffffffffffff1681526020019081526020015f205f8381526020019081526020015f20905033815f015f6101000a81548173ffffffffffffffffffffffffffffffffffffffff021916908373ffffffffffffffffffffffffffffffffffffffff1602179055508181600101819055508381600201819055508281600301819055505f81600401819055505f81600501819055507f18bb2539629584aae5f6a7a5944b5a92a9161f09110eada6dc02e5de825a7f2f33838686426040516104ea959493929190611cd0565b60405180910390a150505050565b6002602052815f5260405f20602052805f5260405f205f9150915050805f015f9054906101000a900473ffffffffffffffffffffffffffffffffffffffff16908060010154908060020154905083565b5f73ffffffffffffffffffffffffffffffffffffffff168273ffffffffffffffffffffffffffffffffffffffff16036105ad576040517f4866b43f00000000000000000000000000000000000000000000000000000000815260040160405180910390fd5b6001816105ba9190611d21565b60015f8473ffffffffffffffffffffffffffffffffffffffff1673ffffffffffffffffffffffffffffffffffffffff1681526020019081526020015f20541015610630576040517f0c411ba700000000000000000000000000000000000000000000000000000000815260040160405180910390fd5b5f3403610669576040517fbb21bfd400000000000000000000000000000000000000000000000000000000815260040160405180910390fd5b5f5f5f8473ffffffffffffffffffffffffffffffffffffffff1673ffffffffffffffffffffffffffffffffffffffff1681526020019081526020015f205f8381526020019081526020015f2090505f816004015482600201546106cc9190611d54565b03610703576040517fb946329700000000000000000000000000000000000000000000000000000000815260040160405180910390fd5b5f3482600401546107149190611d21565b90508160020154811115610754576040517fa589377400000000000000000000000000000000000000000000000000000000815260040160405180910390fd5b5f60035f3373ffffffffffffffffffffffffffffffffffffffff1673ffffffffffffffffffffffffffffffffffffffff1681526020019081526020015f205f8154809291906107a290611c89565b9190505590505f60025f3373ffffffffffffffffffffffffffffffffffffffff1673ffffffffffffffffffffffffffffffffffffffff1681526020019081526020015f205f8381526020019081526020015f20905085815f015f6101000a81548173ffffffffffffffffffffffffffffffffffffffff021916908373ffffffffffffffffffffffffffffffffffffffff16021790555084816001018190555034816002015f8282546108549190611d21565b925050819055508284600401819055507f6018ad64562efd93d22d748684bd9aab8870d294413f37b6bfdca1b8cab1fd0633833489894260405161089d96959493929190611d87565b60405180910390a1505050505050565b6108b5610f21565b6108be82611007565b6108c88282611012565b5050565b5f6108d5611130565b7f360894a13ba1a3210667c828492db98dca3e2076cc3735a920a3ca505d382bbc5f1b905090565b6001602052805f5260405f205f915090505481565b6003602052805f5260405f205f915090505481565b61092f6111b7565b6109385f61123e565b565b5f602052815f5260405f20602052805f5260405f205f9150915050805f015f9054906101000a900473ffffffffffffffffffffffffffffffffffffffff16908060010154908060020154908060030154908060040154908060050154905086565b5f6109a461130f565b90505f815f0160089054906101000a900460ff161590505f825f015f9054906101000a900467ffffffffffffffff1690505f5f8267ffffffffffffffff161480156109ec5750825b90505f60018367ffffffffffffffff16148015610a1f57505f3073ffffffffffffffffffffffffffffffffffffffff163b145b905081158015610a2d575080155b15610a64576040517ff92ee8a900000000000000000000000000000000000000000000000000000000815260040160405180910390fd5b6001855f015f6101000a81548167ffffffffffffffff021916908367ffffffffffffffff1602179055508315610ab1576001855f0160086101000a81548160ff0219169083151502179055505b610aba33611322565b610ac2611336565b8315610b1c575f855f0160086101000a81548160ff0219169083151502179055507fc7f505b2f371ae2175ee4913f4499e1f2633a7b5936321eed1cdaeb6115181d26001604051610b139190611e3b565b60405180910390a15b5050505050565b5f5f610b2d611340565b9050805f015f9054906101000a900473ffffffffffffffffffffffffffffffffffffffff1691505090565b6040518060400160405280600581526020017f352e302e3000000000000000000000000000000000000000000000000000000081525081565b5f8203610bca576040517fd7cece4200000000000000000000000000000000000000000000000000000000815260040160405180910390fd5b5f73ffffffffffffffffffffffffffffffffffffffff168173ffffffffffffffffffffffffffffffffffffffff1603610c2f576040517f4866b43f00000000000000000000000000000000000000000000000000000000815260040160405180910390fd5b600183610c3c9190611d21565b60015f3373ffffffffffffffffffffffffffffffffffffffff1673ffffffffffffffffffffffffffffffffffffffff1681526020019081526020015f20541015610cb2576040517f0c411ba700000000000000000000000000000000000000000000000000000000815260040160405180910390fd5b5f5f5f3373ffffffffffffffffffffffffffffffffffffffff1673ffffffffffffffffffffffffffffffffffffffff1681526020019081526020015f205f8581526020019081526020015f2090505f81600401548260020154610d159190611d54565b03610d4c576040517fb946329700000000000000000000000000000000000000000000000000000000815260040160405180910390fd5b5f81600501548260040154610d619190611d54565b905083811015610d9d576040517f7224d81200000000000000000000000000000000000000000000000000000000815260040160405180910390fd5b83826005015f828254610db09190611d21565b925050819055505f8373ffffffffffffffffffffffffffffffffffffffff1685604051610ddc90611e81565b5f6040518083038185875af1925050503d805f8114610e16576040519150601f19603f3d011682016040523d82523d5f602084013e610e1b565b606091505b5050905080610e56576040517f53a7326b00000000000000000000000000000000000000000000000000000000815260040160405180910390fd5b7f93473097f87d5e9d6b0720d7957a4c6e359bc4ad6e327261efd60d3801d8b6b13387878742604051610e8d959493929190611e95565b60405180910390a1505050505050565b610ea56111b7565b5f73ffffffffffffffffffffffffffffffffffffffff168173ffffffffffffffffffffffffffffffffffffffff1603610f15575f6040517f1e4fbdf7000000000000000000000000000000000000000000000000000000008152600401610f0c9190611b73565b60405180910390fd5b610f1e8161123e565b50565b7f000000000000000000000000000000000000000000000000000000000000000073ffffffffffffffffffffffffffffffffffffffff163073ffffffffffffffffffffffffffffffffffffffff161480610fce57507f000000000000000000000000000000000000000000000000000000000000000073ffffffffffffffffffffffffffffffffffffffff16610fb5611367565b73ffffffffffffffffffffffffffffffffffffffff1614155b15611005576040517fe07c8dba00000000000000000000000000000000000000000000000000000000815260040160405180910390fd5b565b61100f6111b7565b50565b8173ffffffffffffffffffffffffffffffffffffffff166352d1902d6040518163ffffffff1660e01b8152600401602060405180830381865afa92505050801561107a57506040513d601f19601f820116820180604052508101906110779190611f10565b60015b6110bb57816040517f4c9c8ce30000000000000000000000000000000000000000000000000000000081526004016110b29190611b73565b60405180910390fd5b7f360894a13ba1a3210667c828492db98dca3e2076cc3735a920a3ca505d382bbc5f1b811461112157806040517faa1d49a40000000000000000000000000000000000000000000000000000000081526004016111189190611ab7565b60405180910390fd5b61112b83836113ba565b505050565b7f000000000000000000000000000000000000000000000000000000000000000073ffffffffffffffffffffffffffffffffffffffff163073ffffffffffffffffffffffffffffffffffffffff16146111b5576040517fe07c8dba00000000000000000000000000000000000000000000000000000000815260040160405180910390fd5b565b6111bf61142c565b73ffffffffffffffffffffffffffffffffffffffff166111dd610b23565b73ffffffffffffffffffffffffffffffffffffffff161461123c5761120061142c565b6040517f118cdaa70000000000000000000000000000000000000000000000000000000081526004016112339190611b73565b60405180910390fd5b565b5f611247611340565b90505f815f015f9054906101000a900473ffffffffffffffffffffffffffffffffffffffff16905082825f015f6101000a81548173ffffffffffffffffffffffffffffffffffffffff021916908373ffffffffffffffffffffffffffffffffffffffff1602179055508273ffffffffffffffffffffffffffffffffffffffff168173ffffffffffffffffffffffffffffffffffffffff167f8be0079c531659141344cd1fd0a4f28419497f9722a3daafe3b4186f6b6457e060405160405180910390a3505050565b5f5f611319611433565b90508091505090565b61132a61145c565b6113338161149c565b50565b61133e61145c565b565b5f7f9016d09d72d40fdae2fd8ceac6b6234c7706214fd39c1cd1e609a0528c199300905090565b5f6113937f360894a13ba1a3210667c828492db98dca3e2076cc3735a920a3ca505d382bbc5f1b611520565b5f015f9054906101000a900473ffffffffffffffffffffffffffffffffffffffff16905090565b6113c382611529565b8173ffffffffffffffffffffffffffffffffffffffff167fbc7cd75a20ee27fd9adebab32041f755214dbc6bffa90cc0225b39da2e5c2d3b60405160405180910390a25f8151111561141f5761141982826115f2565b50611428565b611427611672565b5b5050565b5f33905090565b5f7ff0c57e16840df040f15088dc2f81fe391c3923bec73e23a9662efc9c229c6a005f1b905090565b6114646116ae565b61149a576040517fd7e6bcf800000000000000000000000000000000000000000000000000000000815260040160405180910390fd5b565b6114a461145c565b5f73ffffffffffffffffffffffffffffffffffffffff168173ffffffffffffffffffffffffffffffffffffffff1603611514575f6040517f1e4fbdf700000000000000000000000000000000000000000000000000000000815260040161150b9190611b73565b60405180910390fd5b61151d8161123e565b50565b5f819050919050565b5f8173ffffffffffffffffffffffffffffffffffffffff163b0361158457806040517f4c9c8ce300000000000000000000000000000000000000000000000000000000815260040161157b9190611b73565b60405180910390fd5b806115b07f360894a13ba1a3210667c828492db98dca3e2076cc3735a920a3ca505d382bbc5f1b611520565b5f015f6101000a81548173ffffffffffffffffffffffffffffffffffffffff021916908373ffffffffffffffffffffffffffffffffffffffff16021790555050565b60605f5f8473ffffffffffffffffffffffffffffffffffffffff168460405161161b9190611f75565b5f60405180830381855af49150503d805f8114611653576040519150601f19603f3d011682016040523d82523d5f602084013e611658565b606091505b50915091506116688583836116cc565b9250505092915050565b5f3411156116ac576040517fb398979f00000000000000000000000000000000000000000000000000000000815260040160405180910390fd5b565b5f6116b761130f565b5f0160089054906101000a900460ff16905090565b6060826116e1576116dc82611759565b611751565b5f825114801561170757505f8473ffffffffffffffffffffffffffffffffffffffff163b145b1561174957836040517f9996b3150000000000000000000000000000000000000000000000000000000081526004016117409190611b73565b60405180910390fd5b819050611752565b5b9392505050565b5f8151111561176a57805160208201fd5b6040517fd6bda27500000000000000000000000000000000000000000000000000000000815260040160405180910390fd5b5f604051905090565b5f5ffd5b5f5ffd5b5f819050919050565b6117bf816117ad565b81146117c9575f5ffd5b50565b5f813590506117da816117b6565b92915050565b5f5f604083850312156117f6576117f56117a5565b5b5f611803858286016117cc565b9250506020611814858286016117cc565b9150509250929050565b5f73ffffffffffffffffffffffffffffffffffffffff82169050919050565b5f6118478261181e565b9050919050565b6118578161183d565b8114611861575f5ffd5b50565b5f813590506118728161184e565b92915050565b5f5f6040838503121561188e5761188d6117a5565b5b5f61189b85828601611864565b92505060206118ac858286016117cc565b9150509250929050565b6118bf8161183d565b82525050565b6118ce816117ad565b82525050565b5f6060820190506118e75f8301866118b6565b6118f460208301856118c5565b61190160408301846118c5565b949350505050565b5f5ffd5b5f5ffd5b5f601f19601f8301169050919050565b7f4e487b71000000000000000000000000000000000000000000000000000000005f52604160045260245ffd5b61195782611911565b810181811067ffffffffffffffff8211171561197657611975611921565b5b80604052505050565b5f61198861179c565b9050611994828261194e565b919050565b5f67ffffffffffffffff8211156119b3576119b2611921565b5b6119bc82611911565b9050602081019050919050565b828183375f83830152505050565b5f6119e96119e484611999565b61197f565b905082815260208101848484011115611a0557611a0461190d565b5b611a108482856119c9565b509392505050565b5f82601f830112611a2c57611a2b611909565b5b8135611a3c8482602086016119d7565b91505092915050565b5f5f60408385031215611a5b57611a5a6117a5565b5b5f611a6885828601611864565b925050602083013567ffffffffffffffff811115611a8957611a886117a9565b5b611a9585828601611a18565b9150509250929050565b5f819050919050565b611ab181611a9f565b82525050565b5f602082019050611aca5f830184611aa8565b92915050565b5f60208284031215611ae557611ae46117a5565b5b5f611af284828501611864565b91505092915050565b5f602082019050611b0e5f8301846118c5565b92915050565b5f60c082019050611b275f8301896118b6565b611b3460208301886118c5565b611b4160408301876118c5565b611b4e60608301866118c5565b611b5b60808301856118c5565b611b6860a08301846118c5565b979650505050505050565b5f602082019050611b865f8301846118b6565b92915050565b5f81519050919050565b5f82825260208201905092915050565b8281835e5f83830152505050565b5f611bbe82611b8c565b611bc88185611b96565b9350611bd8818560208601611ba6565b611be181611911565b840191505092915050565b5f6020820190508181035f830152611c048184611bb4565b905092915050565b5f5f5f60608486031215611c2357611c226117a5565b5b5f611c30868287016117cc565b9350506020611c41868287016117cc565b9250506040611c5286828701611864565b9150509250925092565b7f4e487b71000000000000000000000000000000000000000000000000000000005f52601160045260245ffd5b5f611c93826117ad565b91507fffffffffffffffffffffffffffffffffffffffffffffffffffffffffffffffff8203611cc557611cc4611c5c565b5b600182019050919050565b5f60a082019050611ce35f8301886118b6565b611cf060208301876118c5565b611cfd60408301866118c5565b611d0a60608301856118c5565b611d1760808301846118c5565b9695505050505050565b5f611d2b826117ad565b9150611d36836117ad565b9250828201905080821115611d4e57611d4d611c5c565b5b92915050565b5f611d5e826117ad565b9150611d69836117ad565b9250828203905081811115611d8157611d80611c5c565b5b92915050565b5f60c082019050611d9a5f8301896118b6565b611da760208301886118c5565b611db460408301876118c5565b611dc160608301866118b6565b611dce60808301856118c5565b611ddb60a08301846118c5565b979650505050505050565b5f819050919050565b5f67ffffffffffffffff82169050919050565b5f819050919050565b5f611e25611e20611e1b84611de6565b611e02565b611def565b9050919050565b611e3581611e0b565b82525050565b5f602082019050611e4e5f830184611e2c565b92915050565b5f81905092915050565b50565b5f611e6c5f83611e54565b9150611e7782611e5e565b5f82019050919050565b5f611e8b82611e61565b9150819050919050565b5f60a082019050611ea85f8301886118b6565b611eb560208301876118c5565b611ec260408301866118c5565b611ecf60608301856118b6565b611edc60808301846118c5565b9695505050505050565b611eef81611a9f565b8114611ef9575f5ffd5b50565b5f81519050611f0a81611ee6565b92915050565b5f60208284031215611f2557611f246117a5565b5b5f611f3284828501611efc565b91505092915050565b5f81519050919050565b5f611f4f82611f3b565b611f598185611e54565b9350611f69818560208601611ba6565b80840191505092915050565b5f611f808284611f45565b91508190509291505056fea2646970667358221220172d82aeb3e77f3b703e204b59f94253a83f377be8ef9cffd151b525285ce20364736f6c634300081e0033",
        "nonce": "0x0",
        "chainId": "0x1"
      },
      "additionalContracts": [],
      "isFixedGasLimit": false
    },
    {
      "hash": "0x8f47a4d301d84995e27c8ff3241a45755587a1487ada567311dc2601032dd4cf",
      "transactionType": "CALL",
      "contractName": "Fundify",
      "contractAddress": "0x700b6a60ce7eaaea56f065753d8dcb9653dbad35",
      "function": "initialize()",
      "arguments": [],
      "transaction": {
        "from": "0xa0ee7a142d267c1f36714e4a8f75612f20a79720",
        "to": "0x700b6a60ce7eaaea56f065753d8dcb9653dbad35",
        "gas": "0x17fe1",
        "value": "0x0",
        "input": "0x8129fc1c",
        "nonce": "0x1",
        "chainId": "0x1"
      },
      "additionalContracts": [],
      "isFixedGasLimit": false
    },
    {
      "hash": "0x12a6d42386ca01b0d3fcf962453847a899ba03d33982e19dd3a5bbd25aaae68f",
      "transactionType": "CALL",
      "contractName": "Fundify",
      "contractAddress": "0x700b6a60ce7eaaea56f065753d8dcb9653dbad35",
      "function": "createProject(uint256,uint256)",
      "arguments": [
        "10000000000000000000",
        "2"
      ],
      "transaction": {
        "from": "0xa0ee7a142d267c1f36714e4a8f75612f20a79720",
        "to": "0x700b6a60ce7eaaea56f065753d8dcb9653dbad35",
        "gas": "0x2af6e",
        "value": "0x0",
        "input": "0x02da667b0000000000000000000000000000000000000000000000008ac7230489e800000000000000000000000000000000000000000000000000000000000000000002",
        "nonce": "0x2",
        "chainId": "0x1"
      },
      "additionalContracts": [],
      "isFixedGasLimit": false
    },
    {
      "hash": "0x41460dcb1511b33b86ee8d44c4ac78b32e34013ee476fe54aaff5d49aa12e79d",
      "transactionType": "CALL",
      "contractName": "Fundify",
      "contractAddress": "0x700b6a60ce7eaaea56f065753d8dcb9653dbad35",
      "function": "createProject(uint256,uint256)",
      "arguments": [
        "5000000000000000000",
        "3"
      ],
      "transaction": {
        "from": "0xa0ee7a142d267c1f36714e4a8f75612f20a79720",
        "to": "0x700b6a60ce7eaaea56f065753d8dcb9653dbad35",
        "gas": "0x2bf6d",
        "value": "0x0",
        "input": "0x02da667b0000000000000000000000000000000000000000000000004563918244f400000000000000000000000000000000000000000000000000000000000000000003",
        "nonce": "0x3",
        "chainId": "0x1"
      },
      "additionalContracts": [],
      "isFixedGasLimit": false
    },
    {
      "hash": "0x49edfbc82cbe2b6a33fefcd73d9ff20a057f38a8f4729b890b62487c7e231acf",
      "transactionType": "CALL",
      "contractName": "Fundify",
      "contractAddress": "0x700b6a60ce7eaaea56f065753d8dcb9653dbad35",
      "function": "createProject(uint256,uint256)",
      "arguments": [
        "20000000000000000000",
        "4"
      ],
      "transaction": {
        "from": "0xa0ee7a142d267c1f36714e4a8f75612f20a79720",
        "to": "0x700b6a60ce7eaaea56f065753d8dcb9653dbad35",
        "gas": "0x29869",
        "value": "0x0",
        "input": "0x02da667b000000000000000000000000000000000000000000000001158e460913d000000000000000000000000000000000000000000000000000000000000000000004",
        "nonce": "0x4",
        "chainId": "0x1"
      },
      "additionalContracts": [],
      "isFixedGasLimit": false
    },
    {
      "hash": "0xbaf251d573987d30e14ace0c2ed4e8b8e152d00677ed981b6e3b66a73ae10bc8",
      "transactionType": "CALL",
      "contractName": "Fundify",
      "contractAddress": "0x700b6a60ce7eaaea56f065753d8dcb9653dbad35",
      "function": "fundProject(address,uint256)",
      "arguments": [
        "0xa0Ee7A142d267C1f36714E4a8F75612F20a79720",
        "0"
      ],
      "transaction": {
        "from": "0xf39fd6e51aad88f6f4ce6ab8827279cfffb92266",
        "to": "0x700b6a60ce7eaaea56f065753d8dcb9653dbad35",
        "gas": "0x2b91e",
        "value": "0x1bc16d674ec80000",
        "input": "0x4491629b000000000000000000000000a0ee7a142d267c1f36714e4a8f75612f20a797200000000000000000000000000000000000000000000000000000000000000000",
        "nonce": "0x0",
        "chainId": "0x1"
      },
      "additionalContracts": [],
      "isFixedGasLimit": false
    },
    {
      "hash": "0xeea9426a58540bfda98aedfb59eefb225ae91189d8f8a8ac488755c6b941ccc1",
      "transactionType": "CALL",
      "contractName": "Fundify",
      "contractAddress": "0x700b6a60ce7eaaea56f065753d8dcb9653dbad35",
      "function": "fundProject(address,uint256)",
      "arguments": [
        "0xa0Ee7A142d267C1f36714E4a8F75612F20a79720",
        "1"
      ],
      "transaction": {
        "from": "0xf39fd6e51aad88f6f4ce6ab8827279cfffb92266",
        "to": "0x700b6a60ce7eaaea56f065753d8dcb9653dbad35",
        "gas": "0x2a190",
        "value": "0xde0b6b3a7640000",
        "input": "0x4491629b000000000000000000000000a0ee7a142d267c1f36714e4a8f75612f20a797200000000000000000000000000000000000000000000000000000000000000001",
        "nonce": "0x1",
        "chainId": "0x1"
      },
      "additionalContracts": [],
      "isFixedGasLimit": false
    },
    {
      "hash": "0x31e68125e2ee94afa5fcfb8d222d4c0077b915d3e7e5e2ef82078d2653036c20",
      "transactionType": "CALL",
      "contractName": "Fundify",
      "contractAddress": "0x700b6a60ce7eaaea56f065753d8dcb9653dbad35",
      "function": "fundProject(address,uint256)",
      "arguments": [
        "0xa0Ee7A142d267C1f36714E4a8F75612F20a79720",
        "2"
      ],
      "transaction": {
        "from": "0xf39fd6e51aad88f6f4ce6ab8827279cfffb92266",
        "to": "0x700b6a60ce7eaaea56f065753d8dcb9653dbad35",
        "gas": "0x2a190",
        "value": "0x1bc16d674ec80000",
        "input": "0x4491629b000000000000000000000000a0ee7a142d267c1f36714e4a8f75612f20a797200000000000000000000000000000000000000000000000000000000000000002",
        "nonce": "0x2",
        "chainId": "0x1"
      },
      "additionalContracts": [],
      "isFixedGasLimit": false
    },
    {
      "hash": "0xa7ac4dc4a7789489fca27976752edf97a1ad734c87e0d3d461389eb0f8c14e7f",
      "transactionType": "CALL",
      "contractName": "Fundify",
      "contractAddress": "0x700b6a60ce7eaaea56f065753d8dcb9653dbad35",
      "function": "fundProject(address,uint256)",
      "arguments": [
        "0xa0Ee7A142d267C1f36714E4a8F75612F20a79720",
        "0"
      ],
      "transaction": {
        "from": "0x70997970c51812dc3a010c7d01b50e0d17dc79c8",
        "to": "0x700b6a60ce7eaaea56f065753d8dcb9653dbad35",
        "gas": "0x2361f",
        "value": "0x1bc16d674ec80000",
        "input": "0x4491629b000000000000000000000000a0ee7a142d267c1f36714e4a8f75612f20a797200000000000000000000000000000000000000000000000000000000000000000",
        "nonce": "0x0",
        "chainId": "0x1"
      },
      "additionalContracts": [],
      "isFixedGasLimit": false
    },
    {
      "hash": "0xa7c2245a3527a1c5e55e0ee3c6373be9fe60cc55e230afe411c2e6e3b1959c67",
      "transactionType": "CALL",
      "contractName": "Fundify",
      "contractAddress": "0x700b6a60ce7eaaea56f065753d8dcb9653dbad35",
      "function": "fundProject(address,uint256)",
      "arguments": [
        "0xa0Ee7A142d267C1f36714E4a8F75612F20a79720",
        "1"
      ],
      "transaction": {
        "from": "0x70997970c51812dc3a010c7d01b50e0d17dc79c8",
        "to": "0x700b6a60ce7eaaea56f065753d8dcb9653dbad35",
        "gas": "0x2677e",
        "value": "0xde0b6b3a7640000",
        "input": "0x4491629b000000000000000000000000a0ee7a142d267c1f36714e4a8f75612f20a797200000000000000000000000000000000000000000000000000000000000000001",
        "nonce": "0x1",
        "chainId": "0x1"
      },
      "additionalContracts": [],
      "isFixedGasLimit": false
    },
    {
      "hash": "0x6ea6a28fad3deff5a3cd62237ff06683c6c1ac06a318be1d8a93bedfcb321e8d",
      "transactionType": "CALL",
      "contractName": "Fundify",
      "contractAddress": "0x700b6a60ce7eaaea56f065753d8dcb9653dbad35",
      "function": "fundProject(address,uint256)",
      "arguments": [
        "0xa0Ee7A142d267C1f36714E4a8F75612F20a79720",
        "2"
      ],
      "transaction": {
        "from": "0x70997970c51812dc3a010c7d01b50e0d17dc79c8",
        "to": "0x700b6a60ce7eaaea56f065753d8dcb9653dbad35",
        "gas": "0x2677e",
        "value": "0x1bc16d674ec80000",
        "input": "0x4491629b000000000000000000000000a0ee7a142d267c1f36714e4a8f75612f20a797200000000000000000000000000000000000000000000000000000000000000002",
        "nonce": "0x2",
        "chainId": "0x1"
      },
      "additionalContracts": [],
      "isFixedGasLimit": false
    },
    {
      "hash": "0x04cc323063e4fef186f476bb67905c29fece393d4af244f41aa70dae96e1e63a",
      "transactionType": "CALL",
      "contractName": "Fundify",
      "contractAddress": "0x700b6a60ce7eaaea56f065753d8dcb9653dbad35",
      "function": "fundProject(address,uint256)",
      "arguments": [
        "0xa0Ee7A142d267C1f36714E4a8F75612F20a79720",
        "0"
      ],
      "transaction": {
        "from": "0x3c44cdddb6a900fa2b585dd299e03d12fa4293bc",
        "to": "0x700b6a60ce7eaaea56f065753d8dcb9653dbad35",
        "gas": "0x2361f",
        "value": "0x1bc16d674ec80000",
        "input": "0x4491629b000000000000000000000000a0ee7a142d267c1f36714e4a8f75612f20a797200000000000000000000000000000000000000000000000000000000000000000",
        "nonce": "0x0",
        "chainId": "0x1"
      },
      "additionalContracts": [],
      "isFixedGasLimit": false
    },
    {
      "hash": "0x06c5e494d7ba5d7574875a8468f5cd2419d908bfc689c8914f83cfd73ba374df",
      "transactionType": "CALL",
      "contractName": "Fundify",
      "contractAddress": "0x700b6a60ce7eaaea56f065753d8dcb9653dbad35",
      "function": "fundProject(address,uint256)",
      "arguments": [
        "0xa0Ee7A142d267C1f36714E4a8F75612F20a79720",
        "1"
      ],
      "transaction": {
        "from": "0x3c44cdddb6a900fa2b585dd299e03d12fa4293bc",
        "to": "0x700b6a60ce7eaaea56f065753d8dcb9653dbad35",
        "gas": "0x2677e",
        "value": "0xde0b6b3a7640000",
        "input": "0x4491629b000000000000000000000000a0ee7a142d267c1f36714e4a8f75612f20a797200000000000000000000000000000000000000000000000000000000000000001",
        "nonce": "0x1",
        "chainId": "0x1"
      },
      "additionalContracts": [],
      "isFixedGasLimit": false
    },
    {
      "hash": "0xb23b5091700a016a8a2550c55b0166d98d053806f756ed950486a0a61a02b2d7",
      "transactionType": "CALL",
      "contractName": "Fundify",
      "contractAddress": "0x700b6a60ce7eaaea56f065753d8dcb9653dbad35",
      "function": "fundProject(address,uint256)",
      "arguments": [
        "0xa0Ee7A142d267C1f36714E4a8F75612F20a79720",
        "2"
      ],
      "transaction": {
        "from": "0x3c44cdddb6a900fa2b585dd299e03d12fa4293bc",
        "to": "0x700b6a60ce7eaaea56f065753d8dcb9653dbad35",
        "gas": "0x2677e",
        "value": "0x1bc16d674ec80000",
        "input": "0x4491629b000000000000000000000000a0ee7a142d267c1f36714e4a8f75612f20a797200000000000000000000000000000000000000000000000000000000000000002",
        "nonce": "0x2",
        "chainId": "0x1"
      },
      "additionalContracts": [],
      "isFixedGasLimit": false
    },
    {
      "hash": "0x9394909e642c34d905108449b61e626fa63dd9163d897f4480c61f8c8c597e6d",
      "transactionType": "CALL",
      "contractName": "Fundify",
      "contractAddress": "0x700b6a60ce7eaaea56f065753d8dcb9653dbad35",
      "function": "fundProject(address,uint256)",
      "arguments": [
        "0xa0Ee7A142d267C1f36714E4a8F75612F20a79720",
        "0"
      ],
      "transaction": {
        "from": "0x90f79bf6eb2c4f870365e785982e1f101e93b906",
        "to": "0x700b6a60ce7eaaea56f065753d8dcb9653dbad35",
        "gas": "0x2361f",
        "value": "0x1bc16d674ec80000",
        "input": "0x4491629b000000000000000000000000a0ee7a142d267c1f36714e4a8f75612f20a797200000000000000000000000000000000000000000000000000000000000000000",
        "nonce": "0x0",
        "chainId": "0x1"
      },
      "additionalContracts": [],
      "isFixedGasLimit": false
    },
    {
      "hash": "0xf6ca85efa9ac295fb03e8458fdc5aec7a2d0cb58e9d43d0150cf3c901237fd40",
      "transactionType": "CALL",
      "contractName": "Fundify",
      "contractAddress": "0x700b6a60ce7eaaea56f065753d8dcb9653dbad35",
      "function": "fundProject(address,uint256)",
      "arguments": [
        "0xa0Ee7A142d267C1f36714E4a8F75612F20a79720",
        "1"
      ],
      "transaction": {
        "from": "0x90f79bf6eb2c4f870365e785982e1f101e93b906",
        "to": "0x700b6a60ce7eaaea56f065753d8dcb9653dbad35",
        "gas": "0x2677e",
        "value": "0xde0b6b3a7640000",
        "input": "0x4491629b000000000000000000000000a0ee7a142d267c1f36714e4a8f75612f20a797200000000000000000000000000000000000000000000000000000000000000001",
        "nonce": "0x1",
        "chainId": "0x1"
      },
      "additionalContracts": [],
      "isFixedGasLimit": false
    },
    {
      "hash": "0xc6e74cf3e346f3667d154bec256255448af57f2f2897a558277ae2139fb8ccf4",
      "transactionType": "CALL",
      "contractName": "Fundify",
      "contractAddress": "0x700b6a60ce7eaaea56f065753d8dcb9653dbad35",
      "function": "fundProject(address,uint256)",
      "arguments": [
        "0xa0Ee7A142d267C1f36714E4a8F75612F20a79720",
        "2"
      ],
      "transaction": {
        "from": "0x90f79bf6eb2c4f870365e785982e1f101e93b906",
        "to": "0x700b6a60ce7eaaea56f065753d8dcb9653dbad35",
        "gas": "0x2677e",
        "value": "0x1bc16d674ec80000",
        "input": "0x4491629b000000000000000000000000a0ee7a142d267c1f36714e4a8f75612f20a797200000000000000000000000000000000000000000000000000000000000000002",
        "nonce": "0x2",
        "chainId": "0x1"
      },
      "additionalContracts": [],
      "isFixedGasLimit": false
    },
    {
      "hash": "0x5b8c7c645b2f8bece33a1fc77ea43dc1832907416a10487cc849999e66183a33",
      "transactionType": "CALL",
      "contractName": "Fundify",
      "contractAddress": "0x700b6a60ce7eaaea56f065753d8dcb9653dbad35",
      "function": "fundProject(address,uint256)",
      "arguments": [
        "0xa0Ee7A142d267C1f36714E4a8F75612F20a79720",
        "0"
      ],
      "transaction": {
        "from": "0x15d34aaf54267db7d7c367839aaf71a00a2c6a65",
        "to": "0x700b6a60ce7eaaea56f065753d8dcb9653dbad35",
        "gas": "0x2361f",
        "value": "0x1bc16d674ec80000",
        "input": "0x4491629b000000000000000000000000a0ee7a142d267c1f36714e4a8f75612f20a797200000000000000000000000000000000000000000000000000000000000000000",
        "nonce": "0x0",
        "chainId": "0x1"
      },
      "additionalContracts": [],
      "isFixedGasLimit": false
    },
    {
      "hash": "0x8b3c86a02ad458d72774ba2e23f7ae88dcd3b39d754e1c9e4e5afa78386edb77",
      "transactionType": "CALL",
      "contractName": "Fundify",
      "contractAddress": "0x700b6a60ce7eaaea56f065753d8dcb9653dbad35",
      "function": "fundProject(address,uint256)",
      "arguments": [
        "0xa0Ee7A142d267C1f36714E4a8F75612F20a79720",
        "1"
      ],
      "transaction": {
        "from": "0x15d34aaf54267db7d7c367839aaf71a00a2c6a65",
        "to": "0x700b6a60ce7eaaea56f065753d8dcb9653dbad35",
        "gas": "0x2677e",
        "value": "0xde0b6b3a7640000",
        "input": "0x4491629b000000000000000000000000a0ee7a142d267c1f36714e4a8f75612f20a797200000000000000000000000000000000000000000000000000000000000000001",
        "nonce": "0x1",
        "chainId": "0x1"
      },
      "additionalContracts": [],
      "isFixedGasLimit": false
    },
    {
      "hash": "0x24a4cf8f5b4fedcc304f462978d57e39f83d09c8e56da114fd1d97eb03cb6478",
      "transactionType": "CALL",
      "contractName": "Fundify",
      "contractAddress": "0x700b6a60ce7eaaea56f065753d8dcb9653dbad35",
      "function": "fundProject(address,uint256)",
      "arguments": [
        "0xa0Ee7A142d267C1f36714E4a8F75612F20a79720",
        "2"
      ],
      "transaction": {
        "from": "0x15d34aaf54267db7d7c367839aaf71a00a2c6a65",
        "to": "0x700b6a60ce7eaaea56f065753d8dcb9653dbad35",
        "gas": "0x2677e",
        "value": "0x1bc16d674ec80000",
        "input": "0x4491629b000000000000000000000000a0ee7a142d267c1f36714e4a8f75612f20a797200000000000000000000000000000000000000000000000000000000000000002",
        "nonce": "0x2",
        "chainId": "0x1"
      },
      "additionalContracts": [],
      "isFixedGasLimit": false
    },
    {
      "hash": "0x9488471e64d88b56229e43879d4b5e2832b45bff5983151070c0d0bea237cea7",
      "transactionType": "CALL",
      "contractName": "Fundify",
      "contractAddress": "0x700b6a60ce7eaaea56f065753d8dcb9653dbad35",
      "function": "createProject(uint256,uint256)",
      "arguments": [
        "10000000000000000000",
        "2"
      ],
      "transaction": {
        "from": "0xf39fd6e51aad88f6f4ce6ab8827279cfffb92266",
        "to": "0x700b6a60ce7eaaea56f065753d8dcb9653dbad35",
        "gas": "0x2af6e",
        "value": "0x0",
        "input": "0x02da667b0000000000000000000000000000000000000000000000008ac7230489e800000000000000000000000000000000000000000000000000000000000000000002",
        "nonce": "0x3",
        "chainId": "0x1"
      },
      "additionalContracts": [],
      "isFixedGasLimit": false
    },
    {
      "hash": "0xe9fb540210616ff646a34e3ebd81c44e239b346bf4782a0125d6fc0f67b7d2bb",
      "transactionType": "CALL",
      "contractName": "Fundify",
      "contractAddress": "0x700b6a60ce7eaaea56f065753d8dcb9653dbad35",
      "function": "createProject(uint256,uint256)",
      "arguments": [
        "5000000000000000000",
        "3"
      ],
      "transaction": {
        "from": "0xf39fd6e51aad88f6f4ce6ab8827279cfffb92266",
        "to": "0x700b6a60ce7eaaea56f065753d8dcb9653dbad35",
        "gas": "0x2bf6d",
        "value": "0x0",
        "input": "0x02da667b0000000000000000000000000000000000000000000000004563918244f400000000000000000000000000000000000000000000000000000000000000000003",
        "nonce": "0x4",
        "chainId": "0x1"
      },
      "additionalContracts": [],
      "isFixedGasLimit": false
    },
    {
      "hash": "0xc029f9b02ae74b39e21baa491efbed34e9dcb639eccb86ed013edc81725beb56",
      "transactionType": "CALL",
      "contractName": "Fundify",
      "contractAddress": "0x700b6a60ce7eaaea56f065753d8dcb9653dbad35",
      "function": "createProject(uint256,uint256)",
      "arguments": [
        "20000000000000000000",
        "4"
      ],
      "transaction": {
        "from": "0xf39fd6e51aad88f6f4ce6ab8827279cfffb92266",
        "to": "0x700b6a60ce7eaaea56f065753d8dcb9653dbad35",
        "gas": "0x29869",
        "value": "0x0",
        "input": "0x02da667b000000000000000000000000000000000000000000000001158e460913d000000000000000000000000000000000000000000000000000000000000000000004",
        "nonce": "0x5",
        "chainId": "0x1"
      },
      "additionalContracts": [],
      "isFixedGasLimit": false
    },
    {
      "hash": "0x120ec3f0bccac2980395e00d090aa8cc738925b19821b436a91f1364b7830bce",
      "transactionType": "CALL",
      "contractName": "Fundify",
      "contractAddress": "0x700b6a60ce7eaaea56f065753d8dcb9653dbad35",
      "function": "createProject(uint256,uint256)",
      "arguments": [
        "10000000000000000000",
        "2"
      ],
      "transaction": {
        "from": "0x70997970c51812dc3a010c7d01b50e0d17dc79c8",
        "to": "0x700b6a60ce7eaaea56f065753d8dcb9653dbad35",
        "gas": "0x2af6e",
        "value": "0x0",
        "input": "0x02da667b0000000000000000000000000000000000000000000000008ac7230489e800000000000000000000000000000000000000000000000000000000000000000002",
        "nonce": "0x3",
        "chainId": "0x1"
      },
      "additionalContracts": [],
      "isFixedGasLimit": false
    },
    {
      "hash": "0xeeb3feae5102e1f5d4012b1193910c3f4f3d7f3604a4db3a1546dea0fe3d1b2d",
      "transactionType": "CALL",
      "contractName": "Fundify",
      "contractAddress": "0x700b6a60ce7eaaea56f065753d8dcb9653dbad35",
      "function": "createProject(uint256,uint256)",
      "arguments": [
        "5000000000000000000",
        "3"
      ],
      "transaction": {
        "from": "0x70997970c51812dc3a010c7d01b50e0d17dc79c8",
        "to": "0x700b6a60ce7eaaea56f065753d8dcb9653dbad35",
        "gas": "0x2bf6d",
        "value": "0x0",
        "input": "0x02da667b0000000000000000000000000000000000000000000000004563918244f400000000000000000000000000000000000000000000000000000000000000000003",
        "nonce": "0x4",
        "chainId": "0x1"
      },
      "additionalContracts": [],
      "isFixedGasLimit": false
    },
    {
      "hash": "0xa97f922e4fdaa84d5b9e9dbfdb703d6adc733fb0992cf6c91c6047b0f9e905c7",
      "transactionType": "CALL",
      "contractName": "Fundify",
      "contractAddress": "0x700b6a60ce7eaaea56f065753d8dcb9653dbad35",
      "function": "createProject(uint256,uint256)",
      "arguments": [
        "20000000000000000000",
        "4"
      ],
      "transaction": {
        "from": "0x70997970c51812dc3a010c7d01b50e0d17dc79c8",
        "to": "0x700b6a60ce7eaaea56f065753d8dcb9653dbad35",
        "gas": "0x29869",
        "value": "0x0",
        "input": "0x02da667b000000000000000000000000000000000000000000000001158e460913d000000000000000000000000000000000000000000000000000000000000000000004",
        "nonce": "0x5",
        "chainId": "0x1"
      },
      "additionalContracts": [],
      "isFixedGasLimit": false
    },
    {
      "hash": "0x492debb7c561ba449c2f8b0abecb4c40bd09166a5d5640bd3e356743ebcfc578",
      "transactionType": "CALL",
      "contractName": "Fundify",
      "contractAddress": "0x700b6a60ce7eaaea56f065753d8dcb9653dbad35",
      "function": "createProject(uint256,uint256)",
      "arguments": [
        "10000000000000000000",
        "2"
      ],
      "transaction": {
        "from": "0x3c44cdddb6a900fa2b585dd299e03d12fa4293bc",
        "to": "0x700b6a60ce7eaaea56f065753d8dcb9653dbad35",
        "gas": "0x2af6e",
        "value": "0x0",
        "input": "0x02da667b0000000000000000000000000000000000000000000000008ac7230489e800000000000000000000000000000000000000000000000000000000000000000002",
        "nonce": "0x3",
        "chainId": "0x1"
      },
      "additionalContracts": [],
      "isFixedGasLimit": false
    },
    {
      "hash": "0x4aeb2b90c9d2e6ffba427317eb703a0cf7071bfa97aeb69c8c82075e66766ea2",
      "transactionType": "CALL",
      "contractName": "Fundify",
      "contractAddress": "0x700b6a60ce7eaaea56f065753d8dcb9653dbad35",
      "function": "createProject(uint256,uint256)",
      "arguments": [
        "5000000000000000000",
        "3"
      ],
      "transaction": {
        "from": "0x3c44cdddb6a900fa2b585dd299e03d12fa4293bc",
        "to": "0x700b6a60ce7eaaea56f065753d8dcb9653dbad35",
        "gas": "0x2bf6d",
        "value": "0x0",
        "input": "0x02da667b0000000000000000000000000000000000000000000000004563918244f400000000000000000000000000000000000000000000000000000000000000000003",
        "nonce": "0x4",
        "chainId": "0x1"
      },
      "additionalContracts": [],
      "isFixedGasLimit": false
    },
    {
      "hash": "0xeca3376f269102f3d02bf6a98f5eb53822520f9b9982bcc7ca5c6da1a2df49ff",
      "transactionType": "CALL",
      "contractName": "Fundify",
      "contractAddress": "0x700b6a60ce7eaaea56f065753d8dcb9653dbad35",
      "function": "createProject(uint256,uint256)",
      "arguments": [
        "20000000000000000000",
        "4"
      ],
      "transaction": {
        "from": "0x3c44cdddb6a900fa2b585dd299e03d12fa4293bc",
        "to": "0x700b6a60ce7eaaea56f065753d8dcb9653dbad35",
        "gas": "0x29869",
        "value": "0x0",
        "input": "0x02da667b000000000000000000000000000000000000000000000001158e460913d000000000000000000000000000000000000000000000000000000000000000000004",
        "nonce": "0x5",
        "chainId": "0x1"
      },
      "additionalContracts": [],
      "isFixedGasLimit": false
    },
    {
      "hash": "0xae2c6e28d20c8e1c49d073eef31592547474fc3deff42ab70f0993019d87f671",
      "transactionType": "CALL",
      "contractName": "Fundify",
      "contractAddress": "0x700b6a60ce7eaaea56f065753d8dcb9653dbad35",
      "function": "createProject(uint256,uint256)",
      "arguments": [
        "10000000000000000000",
        "2"
      ],
      "transaction": {
        "from": "0x90f79bf6eb2c4f870365e785982e1f101e93b906",
        "to": "0x700b6a60ce7eaaea56f065753d8dcb9653dbad35",
        "gas": "0x2af6e",
        "value": "0x0",
        "input": "0x02da667b0000000000000000000000000000000000000000000000008ac7230489e800000000000000000000000000000000000000000000000000000000000000000002",
        "nonce": "0x3",
        "chainId": "0x1"
      },
      "additionalContracts": [],
      "isFixedGasLimit": false
    },
    {
      "hash": "0x89d3420135531fecf6ac8aa3adaf890e728e781ac8a17990c5b10ddb7e936c2c",
      "transactionType": "CALL",
      "contractName": "Fundify",
      "contractAddress": "0x700b6a60ce7eaaea56f065753d8dcb9653dbad35",
      "function": "createProject(uint256,uint256)",
      "arguments": [
        "5000000000000000000",
        "3"
      ],
      "transaction": {
        "from": "0x90f79bf6eb2c4f870365e785982e1f101e93b906",
        "to": "0x700b6a60ce7eaaea56f065753d8dcb9653dbad35",
        "gas": "0x2bf6d",
        "value": "0x0",
        "input": "0x02da667b0000000000000000000000000000000000000000000000004563918244f400000000000000000000000000000000000000000000000000000000000000000003",
        "nonce": "0x4",
        "chainId": "0x1"
      },
      "additionalContracts": [],
      "isFixedGasLimit": false
    },
    {
      "hash": "0xb382c101291aab24b449e71d85d3be0771209a2fe1905b292b00fd80b1da7f7d",
      "transactionType": "CALL",
      "contractName": "Fundify",
      "contractAddress": "0x700b6a60ce7eaaea56f065753d8dcb9653dbad35",
      "function": "createProject(uint256,uint256)",
      "arguments": [
        "20000000000000000000",
        "4"
      ],
      "transaction": {
        "from": "0x90f79bf6eb2c4f870365e785982e1f101e93b906",
        "to": "0x700b6a60ce7eaaea56f065753d8dcb9653dbad35",
        "gas": "0x29869",
        "value": "0x0",
        "input": "0x02da667b000000000000000000000000000000000000000000000001158e460913d000000000000000000000000000000000000000000000000000000000000000000004",
        "nonce": "0x5",
        "chainId": "0x1"
      },
      "additionalContracts": [],
      "isFixedGasLimit": false
    },
    {
      "hash": "0x90d482117df20bc74bcc7c424812b45f21bce8d0401445ea9d8371bf1883bb3d",
      "transactionType": "CALL",
      "contractName": "Fundify",
      "contractAddress": "0x700b6a60ce7eaaea56f065753d8dcb9653dbad35",
      "function": "createProject(uint256,uint256)",
      "arguments": [
        "10000000000000000000",
        "2"
      ],
      "transaction": {
        "from": "0x15d34aaf54267db7d7c367839aaf71a00a2c6a65",
        "to": "0x700b6a60ce7eaaea56f065753d8dcb9653dbad35",
        "gas": "0x2af6e",
        "value": "0x0",
        "input": "0x02da667b0000000000000000000000000000000000000000000000008ac7230489e800000000000000000000000000000000000000000000000000000000000000000002",
        "nonce": "0x3",
        "chainId": "0x1"
      },
      "additionalContracts": [],
      "isFixedGasLimit": false
    },
    {
      "hash": "0xdc9c01b76cec6e3ca54f9406ce92bc7209065ab8aa21d404127e3adb2b0b0db6",
      "transactionType": "CALL",
      "contractName": "Fundify",
      "contractAddress": "0x700b6a60ce7eaaea56f065753d8dcb9653dbad35",
      "function": "createProject(uint256,uint256)",
      "arguments": [
        "5000000000000000000",
        "3"
      ],
      "transaction": {
        "from": "0x15d34aaf54267db7d7c367839aaf71a00a2c6a65",
        "to": "0x700b6a60ce7eaaea56f065753d8dcb9653dbad35",
        "gas": "0x2bf6d",
        "value": "0x0",
        "input": "0x02da667b0000000000000000000000000000000000000000000000004563918244f400000000000000000000000000000000000000000000000000000000000000000003",
        "nonce": "0x4",
        "chainId": "0x1"
      },
      "additionalContracts": [],
      "isFixedGasLimit": false
    },
    {
      "hash": "0xb0cd9dfce3ab51f9e31c9ecab450441a989e67305b0ce70965d52c3e807b3072",
      "transactionType": "CALL",
      "contractName": "Fundify",
      "contractAddress": "0x700b6a60ce7eaaea56f065753d8dcb9653dbad35",
      "function": "createProject(uint256,uint256)",
      "arguments": [
        "20000000000000000000",
        "4"
      ],
      "transaction": {
        "from": "0x15d34aaf54267db7d7c367839aaf71a00a2c6a65",
        "to": "0x700b6a60ce7eaaea56f065753d8dcb9653dbad35",
        "gas": "0x29869",
        "value": "0x0",
        "input": "0x02da667b000000000000000000000000000000000000000000000001158e460913d000000000000000000000000000000000000000000000000000000000000000000004",
        "nonce": "0x5",
        "chainId": "0x1"
      },
      "additionalContracts": [],
      "isFixedGasLimit": false
    }
  ],
  "receipts": [
    {
      "status": "0x1",
      "cumulativeGasUsed": "0x1b7d19",
      "logs": [],
      "logsBloom": "0x00000000000000000000000000000000000000000000000000000000000000000000000000000000000000000000000000000000000000000000000000000000000000000000000000000000000000000000000000000000000000000000000000000000000000000000000000000000000000000000000000000000000000000000000000000000000000000000000000000000000000000000000000000000000000000000000000000000000000000000000000000000000000000000000000000000000000000000000000000000000000000000000000000000000000000000000000000000000000000000000000000000000000000000000000000000",
      "type": "0x2",
      "transactionHash": "0x36933ed0d06c49ae7490e1e4236cfa90978db09eb4d5910a8d37b5e67785a7fd",
      "transactionIndex": "0x0",
      "blockHash": "0x9eb6c5f1b387e0dd132b449f94ae21c813845ccc2d0aea98ee53d0c50bb406ed",
      "blockNumber": "0x1",
      "gasUsed": "0x1b7d19",
      "effectiveGasPrice": "0x3b9aca01",
      "blobGasPrice": "0x1",
      "from": "0xa0ee7a142d267c1f36714e4a8f75612f20a79720",
      "to": null,
      "contractAddress": "0x700b6a60ce7eaaea56f065753d8dcb9653dbad35"
    },
    {
      "status": "0x1",
      "cumulativeGasUsed": "0x115ed",
      "logs": [
        {
          "address": "0x700b6a60ce7eaaea56f065753d8dcb9653dbad35",
          "topics": [
            "0x8be0079c531659141344cd1fd0a4f28419497f9722a3daafe3b4186f6b6457e0",
            "0x0000000000000000000000000000000000000000000000000000000000000000",
            "0x000000000000000000000000a0ee7a142d267c1f36714e4a8f75612f20a79720"
          ],
          "data": "0x",
          "blockHash": "0x1442aa50284f3c9aba832e98676e587c8785f0eac68b484472df35d3e96aa09c",
          "blockNumber": "0x2",
          "blockTimestamp": "0x68bc1b38",
          "transactionHash": "0x8f47a4d301d84995e27c8ff3241a45755587a1487ada567311dc2601032dd4cf",
          "transactionIndex": "0x0",
          "logIndex": "0x0",
          "removed": false
        },
        {
          "address": "0x700b6a60ce7eaaea56f065753d8dcb9653dbad35",
          "topics": [
            "0xc7f505b2f371ae2175ee4913f4499e1f2633a7b5936321eed1cdaeb6115181d2"
          ],
          "data": "0x0000000000000000000000000000000000000000000000000000000000000001",
          "blockHash": "0x1442aa50284f3c9aba832e98676e587c8785f0eac68b484472df35d3e96aa09c",
          "blockNumber": "0x2",
          "blockTimestamp": "0x68bc1b38",
          "transactionHash": "0x8f47a4d301d84995e27c8ff3241a45755587a1487ada567311dc2601032dd4cf",
          "transactionIndex": "0x0",
          "logIndex": "0x1",
          "removed": false
        }
      ],
      "logsBloom": "0x00000000000000000000040000000020000000000000000000800000000000000000000000000000000000000000000000000000000000000000000000000000000000000000000000000000000000000001000000000000000008000000000000000000020000000000000000000800000020000000000000000000000000400000000000000000000800000000000000000000000080000000000000000000000000000000000000000000000000000000000000000000000000000000000000000000000000000000000000000000000000000004000000004000000020000001000000000000000000000000000000000000000000000000000000000000",
      "type": "0x2",
      "transactionHash": "0x8f47a4d301d84995e27c8ff3241a45755587a1487ada567311dc2601032dd4cf",
      "transactionIndex": "0x0",
      "blockHash": "0x1442aa50284f3c9aba832e98676e587c8785f0eac68b484472df35d3e96aa09c",
      "blockNumber": "0x2",
      "gasUsed": "0x115ed",
      "effectiveGasPrice": "0x350c833c",
      "blobGasPrice": "0x1",
      "from": "0xa0ee7a142d267c1f36714e4a8f75612f20a79720",
      "to": "0x700b6a60ce7eaaea56f065753d8dcb9653dbad35",
      "contractAddress": null
    },
    {
      "status": "0x1",
      "cumulativeGasUsed": "0x1d60a",
      "logs": [
        {
          "address": "0x700b6a60ce7eaaea56f065753d8dcb9653dbad35",
          "topics": [
            "0x18bb2539629584aae5f6a7a5944b5a92a9161f09110eada6dc02e5de825a7f2f"
          ],
          "data": "0x000000000000000000000000a0ee7a142d267c1f36714e4a8f75612f20a7972000000000000000000000000000000000000000000000000000000000000000000000000000000000000000000000000000000000000000008ac7230489e8000000000000000000000000000000000000000000000000000000000000000000020000000000000000000000000000000000000000000000000000000068bc1b38",
          "blockHash": "0x5a523aa9aa05485f47b404c4c925a61480d86a6927d9c6241e9e04a78d282619",
          "blockNumber": "0x3",
          "blockTimestamp": "0x68bc1b38",
          "transactionHash": "0x12a6d42386ca01b0d3fcf962453847a899ba03d33982e19dd3a5bbd25aaae68f",
          "transactionIndex": "0x0",
          "logIndex": "0x0",
          "removed": false
        }
      ],
      "logsBloom": "0x00000000000000010000000000000020000000000000000000000000000000000000000000000000000000000000000000000000000000000000000000000000000000000000000000000000000000000000000000000000000000000000000000000000000000000000000000000000000020000000000000000000000000000000000000000000000000000000000000000000000000000000000000000000000800000000000000000000000000040000000000000000000000000000000000000000000000000000000000000000000000000000000000000000000000000001000000000000000000000000000000000000000000000000000000000000",
      "type": "0x2",
      "transactionHash": "0x12a6d42386ca01b0d3fcf962453847a899ba03d33982e19dd3a5bbd25aaae68f",
      "transactionIndex": "0x0",
      "blockHash": "0x5a523aa9aa05485f47b404c4c925a61480d86a6927d9c6241e9e04a78d282619",
      "blockNumber": "0x3",
      "gasUsed": "0x1d60a",
      "effectiveGasPrice": "0x2e730025",
      "blobGasPrice": "0x1",
      "from": "0xa0ee7a142d267c1f36714e4a8f75612f20a79720",
      "to": "0x700b6a60ce7eaaea56f065753d8dcb9653dbad35",
      "contractAddress": null
    },
    {
      "status": "0x1",
      "cumulativeGasUsed": "0x1e0fa",
      "logs": [
        {
          "address": "0x700b6a60ce7eaaea56f065753d8dcb9653dbad35",
          "topics": [
            "0x18bb2539629584aae5f6a7a5944b5a92a9161f09110eada6dc02e5de825a7f2f"
          ],
          "data": "0x000000000000000000000000a0ee7a142d267c1f36714e4a8f75612f20a7972000000000000000000000000000000000000000000000000000000000000000010000000000000000000000000000000000000000000000004563918244f4000000000000000000000000000000000000000000000000000000000000000000030000000000000000000000000000000000000000000000000000000068bc1b38",
          "blockHash": "0x8c5ede6661a7295c6eeadc9f3c888128f7b434ca9ac742e50d7638045d805fe7",
          "blockNumber": "0x4",
          "blockTimestamp": "0x68bc1b38",
          "transactionHash": "0x41460dcb1511b33b86ee8d44c4ac78b32e34013ee476fe54aaff5d49aa12e79d",
          "transactionIndex": "0x0",
          "logIndex": "0x0",
          "removed": false
        }
      ],
      "logsBloom": "0x00000000000000010000000000000020000000000000000000000000000000000000000000000000000000000000000000000000000000000000000000000000000000000000000000000000000000000000000000000000000000000000000000000000000000000000000000000000000020000000000000000000000000000000000000000000000000000000000000000000000000000000000000000000000800000000000000000000000000040000000000000000000000000000000000000000000000000000000000000000000000000000000000000000000000000001000000000000000000000000000000000000000000000000000000000000",
      "type": "0x2",
      "transactionHash": "0x41460dcb1511b33b86ee8d44c4ac78b32e34013ee476fe54aaff5d49aa12e79d",
      "transactionIndex": "0x0",
      "blockHash": "0x8c5ede6661a7295c6eeadc9f3c888128f7b434ca9ac742e50d7638045d805fe7",
      "blockNumber": "0x4",
      "gasUsed": "0x1e0fa",
      "effectiveGasPrice": "0x28b08c99",
      "blobGasPrice": "0x1",
      "from": "0xa0ee7a142d267c1f36714e4a8f75612f20a79720",
      "to": "0x700b6a60ce7eaaea56f065753d8dcb9653dbad35",
      "contractAddress": null
    },
    {
      "status": "0x1",
      "cumulativeGasUsed": "0x1e106",
      "logs": [
        {
          "address": "0x700b6a60ce7eaaea56f065753d8dcb9653dbad35",
          "topics": [
            "0x18bb2539629584aae5f6a7a5944b5a92a9161f09110eada6dc02e5de825a7f2f"
          ],
          "data": "0x000000000000000000000000a0ee7a142d267c1f36714e4a8f75612f20a797200000000000000000000000000000000000000000000000000000000000000002000000000000000000000000000000000000000000000001158e460913d0000000000000000000000000000000000000000000000000000000000000000000040000000000000000000000000000000000000000000000000000000068bc1b39",
          "blockHash": "0xf14b27658ada50d80428af0244a3714b48e1dac6dfcb17454a42bf7aba48dcfc",
          "blockNumber": "0x5",
          "blockTimestamp": "0x68bc1b39",
          "transactionHash": "0x49edfbc82cbe2b6a33fefcd73d9ff20a057f38a8f4729b890b62487c7e231acf",
          "transactionIndex": "0x0",
          "logIndex": "0x0",
          "removed": false
        }
      ],
      "logsBloom": "0x00000000000000010000000000000020000000000000000000000000000000000000000000000000000000000000000000000000000000000000000000000000000000000000000000000000000000000000000000000000000000000000000000000000000000000000000000000000000020000000000000000000000000000000000000000000000000000000000000000000000000000000000000000000000800000000000000000000000000040000000000000000000000000000000000000000000000000000000000000000000000000000000000000000000000000001000000000000000000000000000000000000000000000000000000000000",
      "type": "0x2",
      "transactionHash": "0x49edfbc82cbe2b6a33fefcd73d9ff20a057f38a8f4729b890b62487c7e231acf",
      "transactionIndex": "0x0",
      "blockHash": "0xf14b27658ada50d80428af0244a3714b48e1dac6dfcb17454a42bf7aba48dcfc",
      "blockNumber": "0x5",
      "gasUsed": "0x1e106",
      "effectiveGasPrice": "0x23a52b37",
      "blobGasPrice": "0x1",
      "from": "0xa0ee7a142d267c1f36714e4a8f75612f20a79720",
      "to": "0x700b6a60ce7eaaea56f065753d8dcb9653dbad35",
      "contractAddress": null
    },
    {
      "status": "0x1",
      "cumulativeGasUsed": "0x1dcaa",
      "logs": [
        {
          "address": "0x700b6a60ce7eaaea56f065753d8dcb9653dbad35",
          "topics": [
            "0x6018ad64562efd93d22d748684bd9aab8870d294413f37b6bfdca1b8cab1fd06"
          ],
          "data": "0x000000000000000000000000f39fd6e51aad88f6f4ce6ab8827279cfffb9226600000000000000000000000000000000000000000000000000000000000000000000000000000000000000000000000000000000000000001bc16d674ec80000000000000000000000000000a0ee7a142d267c1f36714e4a8f75612f20a7972000000000000000000000000000000000000000000000000000000000000000000000000000000000000000000000000000000000000000000000000068bc1b39",
          "blockHash": "0x8a1224a3ea7ac456a65c49bbb7cf602caede785f049f388478d29d6bb1681dbd",
          "blockNumber": "0x6",
          "blockTimestamp": "0x68bc1b39",
          "transactionHash": "0xbaf251d573987d30e14ace0c2ed4e8b8e152d00677ed981b6e3b66a73ae10bc8",
          "transactionIndex": "0x0",
          "logIndex": "0x0",
          "removed": false
        }
      ],
      "logsBloom": "0x00000000000000000001000000000020000000000000000000000000000000000000000000000000000000000000000000000000000000000000000000000000000000000000000000000000000000000000000000000000000000000000000000000000000000000000000000000000000020000000000000000000000000000000010000000000000000000000000000000000000000000000000000000000000000000000000000000000000000000000000000000000000000000000000000000000000000000000000000000000000000000000000000000000000000000001000000000000000000000000800000000000000000000000000000000000",
      "type": "0x2",
      "transactionHash": "0xbaf251d573987d30e14ace0c2ed4e8b8e152d00677ed981b6e3b66a73ae10bc8",
      "transactionIndex": "0x0",
      "blockHash": "0x8a1224a3ea7ac456a65c49bbb7cf602caede785f049f388478d29d6bb1681dbd",
      "blockNumber": "0x6",
      "gasUsed": "0x1dcaa",
      "effectiveGasPrice": "0x1f39e306",
      "blobGasPrice": "0x1",
      "from": "0xf39fd6e51aad88f6f4ce6ab8827279cfffb92266",
      "to": "0x700b6a60ce7eaaea56f065753d8dcb9653dbad35",
      "contractAddress": null
    },
    {
      "status": "0x1",
      "cumulativeGasUsed": "0x1e7a6",
      "logs": [
        {
          "address": "0x700b6a60ce7eaaea56f065753d8dcb9653dbad35",
          "topics": [
            "0x6018ad64562efd93d22d748684bd9aab8870d294413f37b6bfdca1b8cab1fd06"
          ],
          "data": "0x000000000000000000000000f39fd6e51aad88f6f4ce6ab8827279cfffb9226600000000000000000000000000000000000000000000000000000000000000010000000000000000000000000000000000000000000000000de0b6b3a7640000000000000000000000000000a0ee7a142d267c1f36714e4a8f75612f20a7972000000000000000000000000000000000000000000000000000000000000000010000000000000000000000000000000000000000000000000000000068bc1b39",
          "blockHash": "0x5505e867df07b49c5768a785663d353b5052ed190e8e1d1ecd18597eddc70187",
          "blockNumber": "0x7",
          "blockTimestamp": "0x68bc1b39",
          "transactionHash": "0xeea9426a58540bfda98aedfb59eefb225ae91189d8f8a8ac488755c6b941ccc1",
          "transactionIndex": "0x0",
          "logIndex": "0x0",
          "removed": false
        }
      ],
      "logsBloom": "0x00000000000000000001000000000020000000000000000000000000000000000000000000000000000000000000000000000000000000000000000000000000000000000000000000000000000000000000000000000000000000000000000000000000000000000000000000000000000020000000000000000000000000000000010000000000000000000000000000000000000000000000000000000000000000000000000000000000000000000000000000000000000000000000000000000000000000000000000000000000000000000000000000000000000000000001000000000000000000000000800000000000000000000000000000000000",
      "type": "0x2",
      "transactionHash": "0xeea9426a58540bfda98aedfb59eefb225ae91189d8f8a8ac488755c6b941ccc1",
      "transactionIndex": "0x0",
      "blockHash": "0x5505e867df07b49c5768a785663d353b5052ed190e8e1d1ecd18597eddc70187",
      "blockNumber": "0x7",
      "gasUsed": "0x1e7a6",
      "effectiveGasPrice": "0x1b5ac7a2",
      "blobGasPrice": "0x1",
      "from": "0xf39fd6e51aad88f6f4ce6ab8827279cfffb92266",
      "to": "0x700b6a60ce7eaaea56f065753d8dcb9653dbad35",
      "contractAddress": null
    },
    {
      "status": "0x1",
      "cumulativeGasUsed": "0x1e7a6",
      "logs": [
        {
          "address": "0x700b6a60ce7eaaea56f065753d8dcb9653dbad35",
          "topics": [
            "0x6018ad64562efd93d22d748684bd9aab8870d294413f37b6bfdca1b8cab1fd06"
          ],
          "data": "0x000000000000000000000000f39fd6e51aad88f6f4ce6ab8827279cfffb9226600000000000000000000000000000000000000000000000000000000000000020000000000000000000000000000000000000000000000001bc16d674ec80000000000000000000000000000a0ee7a142d267c1f36714e4a8f75612f20a7972000000000000000000000000000000000000000000000000000000000000000020000000000000000000000000000000000000000000000000000000068bc1b39",
          "blockHash": "0xe23a1c13871392c41be4300fc8d0f2434fdf9912e24c0d831ef2deb67824b5af",
          "blockNumber": "0x8",
          "blockTimestamp": "0x68bc1b39",
          "transactionHash": "0x31e68125e2ee94afa5fcfb8d222d4c0077b915d3e7e5e2ef82078d2653036c20",
          "transactionIndex": "0x0",
          "logIndex": "0x0",
          "removed": false
        }
      ],
      "logsBloom": "0x00000000000000000001000000000020000000000000000000000000000000000000000000000000000000000000000000000000000000000000000000000000000000000000000000000000000000000000000000000000000000000000000000000000000000000000000000000000000020000000000000000000000000000000010000000000000000000000000000000000000000000000000000000000000000000000000000000000000000000000000000000000000000000000000000000000000000000000000000000000000000000000000000000000000000000001000000000000000000000000800000000000000000000000000000000000",
      "type": "0x2",
      "transactionHash": "0x31e68125e2ee94afa5fcfb8d222d4c0077b915d3e7e5e2ef82078d2653036c20",
      "transactionIndex": "0x0",
      "blockHash": "0xe23a1c13871392c41be4300fc8d0f2434fdf9912e24c0d831ef2deb67824b5af",
      "blockNumber": "0x8",
      "gasUsed": "0x1e7a6",
      "effectiveGasPrice": "0x17f6b7ab",
      "blobGasPrice": "0x1",
      "from": "0xf39fd6e51aad88f6f4ce6ab8827279cfffb92266",
      "to": "0x700b6a60ce7eaaea56f065753d8dcb9653dbad35",
      "contractAddress": null
    },
    {
      "status": "0x1",
      "cumulativeGasUsed": "0x199de",
      "logs": [
        {
          "address": "0x700b6a60ce7eaaea56f065753d8dcb9653dbad35",
          "topics": [
            "0x6018ad64562efd93d22d748684bd9aab8870d294413f37b6bfdca1b8cab1fd06"
          ],
          "data": "0x00000000000000000000000070997970c51812dc3a010c7d01b50e0d17dc79c800000000000000000000000000000000000000000000000000000000000000000000000000000000000000000000000000000000000000001bc16d674ec80000000000000000000000000000a0ee7a142d267c1f36714e4a8f75612f20a7972000000000000000000000000000000000000000000000000000000000000000000000000000000000000000000000000000000000000000000000000068bc1b39",
          "blockHash": "0xd192256f5fffa1a90d0544017d598e15cc3e54b595219fce73480dbc22d7a060",
          "blockNumber": "0x9",
          "blockTimestamp": "0x68bc1b39",
          "transactionHash": "0xa7ac4dc4a7789489fca27976752edf97a1ad734c87e0d3d461389eb0f8c14e7f",
          "transactionIndex": "0x0",
          "logIndex": "0x0",
          "removed": false
        }
      ],
      "logsBloom": "0x00000000000000000001000000000020000000000000000000000000000000000000000000000000000000000000000000000000000000000000000000000000000000000000000000000000000000000000000000000000000000000000000000000000000000000000000000000000000020000000000000000000000000000000010000000000000000000000000000000000000000000000000000000000000000000000000000000000000000000000000000000000000000000000000000000000000000000000000000000000000000000000000000000000000000000001000000000000000000000000800000000000000000000000000000000000",
      "type": "0x2",
      "transactionHash": "0xa7ac4dc4a7789489fca27976752edf97a1ad734c87e0d3d461389eb0f8c14e7f",
      "transactionIndex": "0x0",
      "blockHash": "0xd192256f5fffa1a90d0544017d598e15cc3e54b595219fce73480dbc22d7a060",
      "blockNumber": "0x9",
      "gasUsed": "0x199de",
      "effectiveGasPrice": "0x14fe4284",
      "blobGasPrice": "0x1",
      "from": "0x70997970c51812dc3a010c7d01b50e0d17dc79c8",
      "to": "0x700b6a60ce7eaaea56f065753d8dcb9653dbad35",
      "contractAddress": null
    },
    {
      "status": "0x1",
      "cumulativeGasUsed": "0x1a4da",
      "logs": [
        {
          "address": "0x700b6a60ce7eaaea56f065753d8dcb9653dbad35",
          "topics": [
            "0x6018ad64562efd93d22d748684bd9aab8870d294413f37b6bfdca1b8cab1fd06"
          ],
          "data": "0x00000000000000000000000070997970c51812dc3a010c7d01b50e0d17dc79c800000000000000000000000000000000000000000000000000000000000000010000000000000000000000000000000000000000000000000de0b6b3a7640000000000000000000000000000a0ee7a142d267c1f36714e4a8f75612f20a7972000000000000000000000000000000000000000000000000000000000000000010000000000000000000000000000000000000000000000000000000068bc1b39",
          "blockHash": "0xcd0bbf9889f7f14a2e53bda03ff2da71e175136a19c4839ae1c586b55d0e2aac",
          "blockNumber": "0xa",
          "blockTimestamp": "0x68bc1b39",
          "transactionHash": "0xa7c2245a3527a1c5e55e0ee3c6373be9fe60cc55e230afe411c2e6e3b1959c67",
          "transactionIndex": "0x0",
          "logIndex": "0x0",
          "removed": false
        }
      ],
      "logsBloom": "0x00000000000000000001000000000020000000000000000000000000000000000000000000000000000000000000000000000000000000000000000000000000000000000000000000000000000000000000000000000000000000000000000000000000000000000000000000000000000020000000000000000000000000000000010000000000000000000000000000000000000000000000000000000000000000000000000000000000000000000000000000000000000000000000000000000000000000000000000000000000000000000000000000000000000000000001000000000000000000000000800000000000000000000000000000000000",
      "type": "0x2",
      "transactionHash": "0xa7c2245a3527a1c5e55e0ee3c6373be9fe60cc55e230afe411c2e6e3b1959c67",
      "transactionIndex": "0x0",
      "blockHash": "0xcd0bbf9889f7f14a2e53bda03ff2da71e175136a19c4839ae1c586b55d0e2aac",
      "blockNumber": "0xa",
      "gasUsed": "0x1a4da",
      "effectiveGasPrice": "0x12632d30",
      "blobGasPrice": "0x1",
      "from": "0x70997970c51812dc3a010c7d01b50e0d17dc79c8",
      "to": "0x700b6a60ce7eaaea56f065753d8dcb9653dbad35",
      "contractAddress": null
    },
    {
      "status": "0x1",
      "cumulativeGasUsed": "0x1a4da",
      "logs": [
        {
          "address": "0x700b6a60ce7eaaea56f065753d8dcb9653dbad35",
          "topics": [
            "0x6018ad64562efd93d22d748684bd9aab8870d294413f37b6bfdca1b8cab1fd06"
          ],
          "data": "0x00000000000000000000000070997970c51812dc3a010c7d01b50e0d17dc79c800000000000000000000000000000000000000000000000000000000000000020000000000000000000000000000000000000000000000001bc16d674ec80000000000000000000000000000a0ee7a142d267c1f36714e4a8f75612f20a7972000000000000000000000000000000000000000000000000000000000000000020000000000000000000000000000000000000000000000000000000068bc1b39",
          "blockHash": "0xa115715e5704ffc29ea3e2897156878a6a5749dfca648f2f28f2b0950b56411c",
          "blockNumber": "0xb",
          "blockTimestamp": "0x68bc1b39",
          "transactionHash": "0x6ea6a28fad3deff5a3cd62237ff06683c6c1ac06a318be1d8a93bedfcb321e8d",
          "transactionIndex": "0x0",
          "logIndex": "0x0",
          "removed": false
        }
      ],
      "logsBloom": "0x00000000000000000001000000000020000000000000000000000000000000000000000000000000000000000000000000000000000000000000000000000000000000000000000000000000000000000000000000000000000000000000000000000000000000000000000000000000000020000000000000000000000000000000010000000000000000000000000000000000000000000000000000000000000000000000000000000000000000000000000000000000000000000000000000000000000000000000000000000000000000000000000000000000000000000001000000000000000000000000800000000000000000000000000000000000",
      "type": "0x2",
      "transactionHash": "0x6ea6a28fad3deff5a3cd62237ff06683c6c1ac06a318be1d8a93bedfcb321e8d",
      "transactionIndex": "0x0",
      "blockHash": "0xa115715e5704ffc29ea3e2897156878a6a5749dfca648f2f28f2b0950b56411c",
      "blockNumber": "0xb",
      "gasUsed": "0x1a4da",
      "effectiveGasPrice": "0x101b0172",
      "blobGasPrice": "0x1",
      "from": "0x70997970c51812dc3a010c7d01b50e0d17dc79c8",
      "to": "0x700b6a60ce7eaaea56f065753d8dcb9653dbad35",
      "contractAddress": null
    },
    {
      "status": "0x1",
      "cumulativeGasUsed": "0x199de",
      "logs": [
        {
          "address": "0x700b6a60ce7eaaea56f065753d8dcb9653dbad35",
          "topics": [
            "0x6018ad64562efd93d22d748684bd9aab8870d294413f37b6bfdca1b8cab1fd06"
          ],
          "data": "0x0000000000000000000000003c44cdddb6a900fa2b585dd299e03d12fa4293bc00000000000000000000000000000000000000000000000000000000000000000000000000000000000000000000000000000000000000001bc16d674ec80000000000000000000000000000a0ee7a142d267c1f36714e4a8f75612f20a7972000000000000000000000000000000000000000000000000000000000000000000000000000000000000000000000000000000000000000000000000068bc1b39",
          "blockHash": "0x50630b3e3189195655e24780047478dd48d8149b7576688fb6893cce101def10",
          "blockNumber": "0xc",
          "blockTimestamp": "0x68bc1b39",
          "transactionHash": "0x04cc323063e4fef186f476bb67905c29fece393d4af244f41aa70dae96e1e63a",
          "transactionIndex": "0x0",
          "logIndex": "0x0",
          "removed": false
        }
      ],
      "logsBloom": "0x00000000000000000001000000000020000000000000000000000000000000000000000000000000000000000000000000000000000000000000000000000000000000000000000000000000000000000000000000000000000000000000000000000000000000000000000000000000000020000000000000000000000000000000010000000000000000000000000000000000000000000000000000000000000000000000000000000000000000000000000000000000000000000000000000000000000000000000000000000000000000000000000000000000000000000001000000000000000000000000800000000000000000000000000000000000",
      "type": "0x2",
      "transactionHash": "0x04cc323063e4fef186f476bb67905c29fece393d4af244f41aa70dae96e1e63a",
      "transactionIndex": "0x0",
      "blockHash": "0x50630b3e3189195655e24780047478dd48d8149b7576688fb6893cce101def10",
      "blockNumber": "0xc",
      "gasUsed": "0x199de",
      "effectiveGasPrice": "0xe1b54e7",
      "blobGasPrice": "0x1",
      "from": "0x3c44cdddb6a900fa2b585dd299e03d12fa4293bc",
      "to": "0x700b6a60ce7eaaea56f065753d8dcb9653dbad35",
      "contractAddress": null
    },
    {
      "status": "0x1",
      "cumulativeGasUsed": "0x1a4da",
      "logs": [
        {
          "address": "0x700b6a60ce7eaaea56f065753d8dcb9653dbad35",
          "topics": [
            "0x6018ad64562efd93d22d748684bd9aab8870d294413f37b6bfdca1b8cab1fd06"
          ],
          "data": "0x0000000000000000000000003c44cdddb6a900fa2b585dd299e03d12fa4293bc00000000000000000000000000000000000000000000000000000000000000010000000000000000000000000000000000000000000000000de0b6b3a7640000000000000000000000000000a0ee7a142d267c1f36714e4a8f75612f20a7972000000000000000000000000000000000000000000000000000000000000000010000000000000000000000000000000000000000000000000000000068bc1b39",
          "blockHash": "0xe1834ff00526c1bde6e180b3a3af9537fec095ebc47d5c804e1a18e0e1937585",
          "blockNumber": "0xd",
          "blockTimestamp": "0x68bc1b39",
          "transactionHash": "0x06c5e494d7ba5d7574875a8468f5cd2419d908bfc689c8914f83cfd73ba374df",
          "transactionIndex": "0x0",
          "logIndex": "0x0",
          "removed": false
        }
      ],
      "logsBloom": "0x00000000000000000001000000000020000000000000000000000000000000000000000000000000000000000000000000000000000000000000000000000000000000000000000000000000000000000000000000000000000000000000000000000000000000000000000000000000000020000000000000000000000000000000010000000000000000000000000000000000000000000000000000000000000000000000000000000000000000000000000000000000000000000000000000000000000000000000000000000000000000000000000000000000000000000001000000000000000000000000800000000000000000000000000000000000",
      "type": "0x2",
      "transactionHash": "0x06c5e494d7ba5d7574875a8468f5cd2419d908bfc689c8914f83cfd73ba374df",
      "transactionIndex": "0x0",
      "blockHash": "0xe1834ff00526c1bde6e180b3a3af9537fec095ebc47d5c804e1a18e0e1937585",
      "blockNumber": "0xd",
      "gasUsed": "0x1a4da",
      "effectiveGasPrice": "0xc5b12a9",
      "blobGasPrice": "0x1",
      "from": "0x3c44cdddb6a900fa2b585dd299e03d12fa4293bc",
      "to": "0x700b6a60ce7eaaea56f065753d8dcb9653dbad35",
      "contractAddress": null
    },
    {
      "status": "0x1",
      "cumulativeGasUsed": "0x1a4da",
      "logs": [
        {
          "address": "0x700b6a60ce7eaaea56f065753d8dcb9653dbad35",
          "topics": [
            "0x6018ad64562efd93d22d748684bd9aab8870d294413f37b6bfdca1b8cab1fd06"
          ],
          "data": "0x0000000000000000000000003c44cdddb6a900fa2b585dd299e03d12fa4293bc00000000000000000000000000000000000000000000000000000000000000020000000000000000000000000000000000000000000000001bc16d674ec80000000000000000000000000000a0ee7a142d267c1f36714e4a8f75612f20a7972000000000000000000000000000000000000000000000000000000000000000020000000000000000000000000000000000000000000000000000000068bc1b39",
          "blockHash": "0xbf20378335ab500cfe0fe894f9992915a194e9a86b05e2a9d9b87b3d3e3987bc",
          "blockNumber": "0xe",
          "blockTimestamp": "0x68bc1b39",
          "transactionHash": "0xb23b5091700a016a8a2550c55b0166d98d053806f756ed950486a0a61a02b2d7",
          "transactionIndex": "0x0",
          "logIndex": "0x0",
          "removed": false
        }
      ],
      "logsBloom": "0x00000000000000000001000000000020000000000000000000000000000000000000000000000000000000000000000000000000000000000000000000000000000000000000000000000000000000000000000000000000000000000000000000000000000000000000000000000000000020000000000000000000000000000000010000000000000000000000000000000000000000000000000000000000000000000000000000000000000000000000000000000000000000000000000000000000000000000000000000000000000000000000000000000000000000000001000000000000000000000000800000000000000000000000000000000000",
      "type": "0x2",
      "transactionHash": "0xb23b5091700a016a8a2550c55b0166d98d053806f756ed950486a0a61a02b2d7",
      "transactionIndex": "0x0",
      "blockHash": "0xbf20378335ab500cfe0fe894f9992915a194e9a86b05e2a9d9b87b3d3e3987bc",
      "blockNumber": "0xe",
      "gasUsed": "0x1a4da",
      "effectiveGasPrice": "0xad28756",
      "blobGasPrice": "0x1",
      "from": "0x3c44cdddb6a900fa2b585dd299e03d12fa4293bc",
      "to": "0x700b6a60ce7eaaea56f065753d8dcb9653dbad35",
      "contractAddress": null
    },
    {
      "status": "0x1",
      "cumulativeGasUsed": "0x199de",
      "logs": [
        {
          "address": "0x700b6a60ce7eaaea56f065753d8dcb9653dbad35",
          "topics": [
            "0x6018ad64562efd93d22d748684bd9aab8870d294413f37b6bfdca1b8cab1fd06"
          ],
          "data": "0x00000000000000000000000090f79bf6eb2c4f870365e785982e1f101e93b90600000000000000000000000000000000000000000000000000000000000000000000000000000000000000000000000000000000000000001bc16d674ec80000000000000000000000000000a0ee7a142d267c1f36714e4a8f75612f20a7972000000000000000000000000000000000000000000000000000000000000000000000000000000000000000000000000000000000000000000000000068bc1b39",
          "blockHash": "0x3732d650ddf6e41038753fe9d75fbaba28770a2e0aab3e25c1cb2c5b5d753335",
          "blockNumber": "0xf",
          "blockTimestamp": "0x68bc1b39",
          "transactionHash": "0x9394909e642c34d905108449b61e626fa63dd9163d897f4480c61f8c8c597e6d",
          "transactionIndex": "0x0",
          "logIndex": "0x0",
          "removed": false
        }
      ],
      "logsBloom": "0x00000000000000000001000000000020000000000000000000000000000000000000000000000000000000000000000000000000000000000000000000000000000000000000000000000000000000000000000000000000000000000000000000000000000000000000000000000000000020000000000000000000000000000000010000000000000000000000000000000000000000000000000000000000000000000000000000000000000000000000000000000000000000000000000000000000000000000000000000000000000000000000000000000000000000000001000000000000000000000000800000000000000000000000000000000000",
      "type": "0x2",
      "transactionHash": "0x9394909e642c34d905108449b61e626fa63dd9163d897f4480c61f8c8c597e6d",
      "transactionIndex": "0x0",
      "blockHash": "0x3732d650ddf6e41038753fe9d75fbaba28770a2e0aab3e25c1cb2c5b5d753335",
      "blockNumber": "0xf",
      "gasUsed": "0x199de",
      "effectiveGasPrice": "0x97ab334",
      "blobGasPrice": "0x1",
      "from": "0x90f79bf6eb2c4f870365e785982e1f101e93b906",
      "to": "0x700b6a60ce7eaaea56f065753d8dcb9653dbad35",
      "contractAddress": null
    },
    {
      "status": "0x1",
      "cumulativeGasUsed": "0x1a4da",
      "logs": [
        {
          "address": "0x700b6a60ce7eaaea56f065753d8dcb9653dbad35",
          "topics": [
            "0x6018ad64562efd93d22d748684bd9aab8870d294413f37b6bfdca1b8cab1fd06"
          ],
          "data": "0x00000000000000000000000090f79bf6eb2c4f870365e785982e1f101e93b90600000000000000000000000000000000000000000000000000000000000000010000000000000000000000000000000000000000000000000de0b6b3a7640000000000000000000000000000a0ee7a142d267c1f36714e4a8f75612f20a7972000000000000000000000000000000000000000000000000000000000000000010000000000000000000000000000000000000000000000000000000068bc1b39",
          "blockHash": "0x239ba4c77a41e4c6ff6d1dd7907e8c2b098e77ae2cd8c5c4a181b32a7e1964e1",
          "blockNumber": "0x10",
          "blockTimestamp": "0x68bc1b39",
          "transactionHash": "0xf6ca85efa9ac295fb03e8458fdc5aec7a2d0cb58e9d43d0150cf3c901237fd40",
          "transactionIndex": "0x0",
          "logIndex": "0x0",
          "removed": false
        }
      ],
      "logsBloom": "0x00000000000000000001000000000020000000000000000000000000000000000000000000000000000000000000000000000000000000000000000000000000000000000000000000000000000000000000000000000000000000000000000000000000000000000000000000000000000020000000000000000000000000000000010000000000000000000000000000000000000000000000000000000000000000000000000000000000000000000000000000000000000000000000000000000000000000000000000000000000000000000000000000000000000000000001000000000000000000000000800000000000000000000000000000000000",
      "type": "0x2",
      "transactionHash": "0xf6ca85efa9ac295fb03e8458fdc5aec7a2d0cb58e9d43d0150cf3c901237fd40",
      "transactionIndex": "0x0",
      "blockHash": "0x239ba4c77a41e4c6ff6d1dd7907e8c2b098e77ae2cd8c5c4a181b32a7e1964e1",
      "blockNumber": "0x10",
      "gasUsed": "0x1a4da",
      "effectiveGasPrice": "0x84d7c01",
      "blobGasPrice": "0x1",
      "from": "0x90f79bf6eb2c4f870365e785982e1f101e93b906",
      "to": "0x700b6a60ce7eaaea56f065753d8dcb9653dbad35",
      "contractAddress": null
    },
    {
      "status": "0x1",
      "cumulativeGasUsed": "0x1a4da",
      "logs": [
        {
          "address": "0x700b6a60ce7eaaea56f065753d8dcb9653dbad35",
          "topics": [
            "0x6018ad64562efd93d22d748684bd9aab8870d294413f37b6bfdca1b8cab1fd06"
          ],
          "data": "0x00000000000000000000000090f79bf6eb2c4f870365e785982e1f101e93b90600000000000000000000000000000000000000000000000000000000000000020000000000000000000000000000000000000000000000001bc16d674ec80000000000000000000000000000a0ee7a142d267c1f36714e4a8f75612f20a7972000000000000000000000000000000000000000000000000000000000000000020000000000000000000000000000000000000000000000000000000068bc1b39",
          "blockHash": "0x0473b688aa1df40ff1f7f2c85d5331f0e9f8d10cb52fa16abb5aba92da4a1b4c",
          "blockNumber": "0x11",
          "blockTimestamp": "0x68bc1b39",
          "transactionHash": "0xc6e74cf3e346f3667d154bec256255448af57f2f2897a558277ae2139fb8ccf4",
          "transactionIndex": "0x0",
          "logIndex": "0x0",
          "removed": false
        }
      ],
      "logsBloom": "0x00000000000000000001000000000020000000000000000000000000000000000000000000000000000000000000000000000000000000000000000000000000000000000000000000000000000000000000000000000000000000000000000000000000000000000000000000000000000020000000000000000000000000000000010000000000000000000000000000000000000000000000000000000000000000000000000000000000000000000000000000000000000000000000000000000000000000000000000000000000000000000000000000000000000000000001000000000000000000000000800000000000000000000000000000000000",
      "type": "0x2",
      "transactionHash": "0xc6e74cf3e346f3667d154bec256255448af57f2f2897a558277ae2139fb8ccf4",
      "transactionIndex": "0x0",
      "blockHash": "0x0473b688aa1df40ff1f7f2c85d5331f0e9f8d10cb52fa16abb5aba92da4a1b4c",
      "blockNumber": "0x11",
      "gasUsed": "0x1a4da",
      "effectiveGasPrice": "0x745b508",
      "blobGasPrice": "0x1",
      "from": "0x90f79bf6eb2c4f870365e785982e1f101e93b906",
      "to": "0x700b6a60ce7eaaea56f065753d8dcb9653dbad35",
      "contractAddress": null
    },
    {
      "status": "0x1",
      "cumulativeGasUsed": "0x199de",
      "logs": [
        {
          "address": "0x700b6a60ce7eaaea56f065753d8dcb9653dbad35",
          "topics": [
            "0x6018ad64562efd93d22d748684bd9aab8870d294413f37b6bfdca1b8cab1fd06"
          ],
          "data": "0x00000000000000000000000015d34aaf54267db7d7c367839aaf71a00a2c6a6500000000000000000000000000000000000000000000000000000000000000000000000000000000000000000000000000000000000000001bc16d674ec80000000000000000000000000000a0ee7a142d267c1f36714e4a8f75612f20a7972000000000000000000000000000000000000000000000000000000000000000000000000000000000000000000000000000000000000000000000000068bc1b39",
          "blockHash": "0x0fb1ddc44996431b5c4ceba032a1995141869fdf3544f5eed673b74909e02166",
          "blockNumber": "0x12",
          "blockTimestamp": "0x68bc1b39",
          "transactionHash": "0x5b8c7c645b2f8bece33a1fc77ea43dc1832907416a10487cc849999e66183a33",
          "transactionIndex": "0x0",
          "logIndex": "0x0",
          "removed": false
        }
      ],
      "logsBloom": "0x00000000000000000001000000000020000000000000000000000000000000000000000000000000000000000000000000000000000000000000000000000000000000000000000000000000000000000000000000000000000000000000000000000000000000000000000000000000000020000000000000000000000000000000010000000000000000000000000000000000000000000000000000000000000000000000000000000000000000000000000000000000000000000000000000000000000000000000000000000000000000000000000000000000000000000001000000000000000000000000800000000000000000000000000000000000",
      "type": "0x2",
      "transactionHash": "0x5b8c7c645b2f8bece33a1fc77ea43dc1832907416a10487cc849999e66183a33",
      "transactionIndex": "0x0",
      "blockHash": "0x0fb1ddc44996431b5c4ceba032a1995141869fdf3544f5eed673b74909e02166",
      "blockNumber": "0x12",
      "gasUsed": "0x199de",
      "effectiveGasPrice": "0x65eaa4d",
      "blobGasPrice": "0x1",
      "from": "0x15d34aaf54267db7d7c367839aaf71a00a2c6a65",
      "to": "0x700b6a60ce7eaaea56f065753d8dcb9653dbad35",
      "contractAddress": null
    },
    {
      "status": "0x1",
      "cumulativeGasUsed": "0x1a4da",
      "logs": [
        {
          "address": "0x700b6a60ce7eaaea56f065753d8dcb9653dbad35",
          "topics": [
            "0x6018ad64562efd93d22d748684bd9aab8870d294413f37b6bfdca1b8cab1fd06"
          ],
          "data": "0x00000000000000000000000015d34aaf54267db7d7c367839aaf71a00a2c6a6500000000000000000000000000000000000000000000000000000000000000010000000000000000000000000000000000000000000000000de0b6b3a7640000000000000000000000000000a0ee7a142d267c1f36714e4a8f75612f20a7972000000000000000000000000000000000000000000000000000000000000000010000000000000000000000000000000000000000000000000000000068bc1b39",
          "blockHash": "0x1f795aeeb3906c8b7ff86895b7af2948f65b4cac12c132a4999c6acff2b4c68d",
          "blockNumber": "0x13",
          "blockTimestamp": "0x68bc1b39",
          "transactionHash": "0x8b3c86a02ad458d72774ba2e23f7ae88dcd3b39d754e1c9e4e5afa78386edb77",
          "transactionIndex": "0x0",
          "logIndex": "0x0",
          "removed": false
        }
      ],
      "logsBloom": "0x00000000000000000001000000000020000000000000000000000000000000000000000000000000000000000000000000000000000000000000000000000000000000000000000000000000000000000000000000000000000000000000000000000000000000000000000000000000000020000000000000000000000000000000010000000000000000000000000000000000000000000000000000000000000000000000000000000000000000000000000000000000000000000000000000000000000000000000000000000000000000000000000000000000000000000001000000000000000000000000800000000000000000000000000000000000",
      "type": "0x2",
      "transactionHash": "0x8b3c86a02ad458d72774ba2e23f7ae88dcd3b39d754e1c9e4e5afa78386edb77",
      "transactionIndex": "0x0",
      "blockHash": "0x1f795aeeb3906c8b7ff86895b7af2948f65b4cac12c132a4999c6acff2b4c68d",
      "blockNumber": "0x13",
      "gasUsed": "0x1a4da",
      "effectiveGasPrice": "0x5944207",
      "blobGasPrice": "0x1",
      "from": "0x15d34aaf54267db7d7c367839aaf71a00a2c6a65",
      "to": "0x700b6a60ce7eaaea56f065753d8dcb9653dbad35",
      "contractAddress": null
    },
    {
      "status": "0x1",
      "cumulativeGasUsed": "0x1a4da",
      "logs": [
        {
          "address": "0x700b6a60ce7eaaea56f065753d8dcb9653dbad35",
          "topics": [
            "0x6018ad64562efd93d22d748684bd9aab8870d294413f37b6bfdca1b8cab1fd06"
          ],
          "data": "0x00000000000000000000000015d34aaf54267db7d7c367839aaf71a00a2c6a6500000000000000000000000000000000000000000000000000000000000000020000000000000000000000000000000000000000000000001bc16d674ec80000000000000000000000000000a0ee7a142d267c1f36714e4a8f75612f20a7972000000000000000000000000000000000000000000000000000000000000000020000000000000000000000000000000000000000000000000000000068bc1b39",
          "blockHash": "0x68b7e1adb7edd194604a81697ff036fa7c54883aa2f8729597de52e5a50b2430",
          "blockNumber": "0x14",
          "blockTimestamp": "0x68bc1b39",
          "transactionHash": "0x24a4cf8f5b4fedcc304f462978d57e39f83d09c8e56da114fd1d97eb03cb6478",
          "transactionIndex": "0x0",
          "logIndex": "0x0",
          "removed": false
        }
      ],
      "logsBloom": "0x00000000000000000001000000000020000000000000000000000000000000000000000000000000000000000000000000000000000000000000000000000000000000000000000000000000000000000000000000000000000000000000000000000000000000000000000000000000000020000000000000000000000000000000010000000000000000000000000000000000000000000000000000000000000000000000000000000000000000000000000000000000000000000000000000000000000000000000000000000000000000000000000000000000000000000001000000000000000000000000800000000000000000000000000000000000",
      "type": "0x2",
      "transactionHash": "0x24a4cf8f5b4fedcc304f462978d57e39f83d09c8e56da114fd1d97eb03cb6478",
      "transactionIndex": "0x0",
      "blockHash": "0x68b7e1adb7edd194604a81697ff036fa7c54883aa2f8729597de52e5a50b2430",
      "blockNumber": "0x14",
      "gasUsed": "0x1a4da",
      "effectiveGasPrice": "0x4e3020c",
      "blobGasPrice": "0x1",
      "from": "0x15d34aaf54267db7d7c367839aaf71a00a2c6a65",
      "to": "0x700b6a60ce7eaaea56f065753d8dcb9653dbad35",
      "contractAddress": null
    },
    {
      "status": "0x1",
      "cumulativeGasUsed": "0x1d60a",
      "logs": [
        {
          "address": "0x700b6a60ce7eaaea56f065753d8dcb9653dbad35",
          "topics": [
            "0x18bb2539629584aae5f6a7a5944b5a92a9161f09110eada6dc02e5de825a7f2f"
          ],
          "data": "0x000000000000000000000000f39fd6e51aad88f6f4ce6ab8827279cfffb9226600000000000000000000000000000000000000000000000000000000000000000000000000000000000000000000000000000000000000008ac7230489e8000000000000000000000000000000000000000000000000000000000000000000020000000000000000000000000000000000000000000000000000000068bc1b3a",
          "blockHash": "0xf9e9345fc38c9674bfd4fe9f816d440b55b87a8877f9933b5b3f6722de1d58ae",
          "blockNumber": "0x15",
          "blockTimestamp": "0x68bc1b3a",
          "transactionHash": "0x9488471e64d88b56229e43879d4b5e2832b45bff5983151070c0d0bea237cea7",
          "transactionIndex": "0x0",
          "logIndex": "0x0",
          "removed": false
        }
      ],
      "logsBloom": "0x00000000000000010000000000000020000000000000000000000000000000000000000000000000000000000000000000000000000000000000000000000000000000000000000000000000000000000000000000000000000000000000000000000000000000000000000000000000000020000000000000000000000000000000000000000000000000000000000000000000000000000000000000000000000800000000000000000000000000040000000000000000000000000000000000000000000000000000000000000000000000000000000000000000000000000001000000000000000000000000000000000000000000000000000000000000",
      "type": "0x2",
      "transactionHash": "0x9488471e64d88b56229e43879d4b5e2832b45bff5983151070c0d0bea237cea7",
      "transactionIndex": "0x0",
      "blockHash": "0xf9e9345fc38c9674bfd4fe9f816d440b55b87a8877f9933b5b3f6722de1d58ae",
      "blockNumber": "0x15",
      "gasUsed": "0x1d60a",
      "effectiveGasPrice": "0x447c154",
      "blobGasPrice": "0x1",
      "from": "0xf39fd6e51aad88f6f4ce6ab8827279cfffb92266",
      "to": "0x700b6a60ce7eaaea56f065753d8dcb9653dbad35",
      "contractAddress": null
    },
    {
      "status": "0x1",
      "cumulativeGasUsed": "0x1e0fa",
      "logs": [
        {
          "address": "0x700b6a60ce7eaaea56f065753d8dcb9653dbad35",
          "topics": [
            "0x18bb2539629584aae5f6a7a5944b5a92a9161f09110eada6dc02e5de825a7f2f"
          ],
          "data": "0x000000000000000000000000f39fd6e51aad88f6f4ce6ab8827279cfffb9226600000000000000000000000000000000000000000000000000000000000000010000000000000000000000000000000000000000000000004563918244f4000000000000000000000000000000000000000000000000000000000000000000030000000000000000000000000000000000000000000000000000000068bc1b3a",
          "blockHash": "0xc4603115fb93a67c03e184093f91cb8dc91d287a98fa2e338138e9a39ff4b86a",
          "blockNumber": "0x16",
          "blockTimestamp": "0x68bc1b3a",
          "transactionHash": "0xe9fb540210616ff646a34e3ebd81c44e239b346bf4782a0125d6fc0f67b7d2bb",
          "transactionIndex": "0x0",
          "logIndex": "0x0",
          "removed": false
        }
      ],
      "logsBloom": "0x00000000000000010000000000000020000000000000000000000000000000000000000000000000000000000000000000000000000000000000000000000000000000000000000000000000000000000000000000000000000000000000000000000000000000000000000000000000000020000000000000000000000000000000000000000000000000000000000000000000000000000000000000000000000800000000000000000000000000040000000000000000000000000000000000000000000000000000000000000000000000000000000000000000000000000001000000000000000000000000000000000000000000000000000000000000",
      "type": "0x2",
      "transactionHash": "0xe9fb540210616ff646a34e3ebd81c44e239b346bf4782a0125d6fc0f67b7d2bb",
      "transactionIndex": "0x0",
      "blockHash": "0xc4603115fb93a67c03e184093f91cb8dc91d287a98fa2e338138e9a39ff4b86a",
      "blockNumber": "0x16",
      "gasUsed": "0x1e0fa",
      "effectiveGasPrice": "0x3bfe273",
      "blobGasPrice": "0x1",
      "from": "0xf39fd6e51aad88f6f4ce6ab8827279cfffb92266",
      "to": "0x700b6a60ce7eaaea56f065753d8dcb9653dbad35",
      "contractAddress": null
    },
    {
      "status": "0x1",
      "cumulativeGasUsed": "0x1e106",
      "logs": [
        {
          "address": "0x700b6a60ce7eaaea56f065753d8dcb9653dbad35",
          "topics": [
            "0x18bb2539629584aae5f6a7a5944b5a92a9161f09110eada6dc02e5de825a7f2f"
          ],
          "data": "0x000000000000000000000000f39fd6e51aad88f6f4ce6ab8827279cfffb922660000000000000000000000000000000000000000000000000000000000000002000000000000000000000000000000000000000000000001158e460913d0000000000000000000000000000000000000000000000000000000000000000000040000000000000000000000000000000000000000000000000000000068bc1b3a",
          "blockHash": "0x8d9355899e82c74e6b6a0f9d112202ca8491eb6950f26e69a2d03e68ebf6acf0",
          "blockNumber": "0x17",
          "blockTimestamp": "0x68bc1b3a",
          "transactionHash": "0xc029f9b02ae74b39e21baa491efbed34e9dcb639eccb86ed013edc81725beb56",
          "transactionIndex": "0x0",
          "logIndex": "0x0",
          "removed": false
        }
      ],
      "logsBloom": "0x00000000000000010000000000000020000000000000000000000000000000000000000000000000000000000000000000000000000000000000000000000000000000000000000000000000000000000000000000000000000000000000000000000000000000000000000000000000000020000000000000000000000000000000000000000000000000000000000000000000000000000000000000000000000800000000000000000000000000040000000000000000000000000000000000000000000000000000000000000000000000000000000000000000000000000001000000000000000000000000000000000000000000000000000000000000",
      "type": "0x2",
      "transactionHash": "0xc029f9b02ae74b39e21baa491efbed34e9dcb639eccb86ed013edc81725beb56",
      "transactionIndex": "0x0",
      "blockHash": "0x8d9355899e82c74e6b6a0f9d112202ca8491eb6950f26e69a2d03e68ebf6acf0",
      "blockNumber": "0x17",
      "gasUsed": "0x1e106",
      "effectiveGasPrice": "0x348e249",
      "blobGasPrice": "0x1",
      "from": "0xf39fd6e51aad88f6f4ce6ab8827279cfffb92266",
      "to": "0x700b6a60ce7eaaea56f065753d8dcb9653dbad35",
      "contractAddress": null
    },
    {
      "status": "0x1",
      "cumulativeGasUsed": "0x1d60a",
      "logs": [
        {
          "address": "0x700b6a60ce7eaaea56f065753d8dcb9653dbad35",
          "topics": [
            "0x18bb2539629584aae5f6a7a5944b5a92a9161f09110eada6dc02e5de825a7f2f"
          ],
          "data": "0x00000000000000000000000070997970c51812dc3a010c7d01b50e0d17dc79c800000000000000000000000000000000000000000000000000000000000000000000000000000000000000000000000000000000000000008ac7230489e8000000000000000000000000000000000000000000000000000000000000000000020000000000000000000000000000000000000000000000000000000068bc1b3a",
          "blockHash": "0xb570e1b97e6f928620d55f71c639a4f00f37d2ac27d9272ad71db1f539f715fc",
          "blockNumber": "0x18",
          "blockTimestamp": "0x68bc1b3a",
          "transactionHash": "0x120ec3f0bccac2980395e00d090aa8cc738925b19821b436a91f1364b7830bce",
          "transactionIndex": "0x0",
          "logIndex": "0x0",
          "removed": false
        }
      ],
      "logsBloom": "0x00000000000000010000000000000020000000000000000000000000000000000000000000000000000000000000000000000000000000000000000000000000000000000000000000000000000000000000000000000000000000000000000000000000000000000000000000000000000020000000000000000000000000000000000000000000000000000000000000000000000000000000000000000000000800000000000000000000000000040000000000000000000000000000000000000000000000000000000000000000000000000000000000000000000000000001000000000000000000000000000000000000000000000000000000000000",
      "type": "0x2",
      "transactionHash": "0x120ec3f0bccac2980395e00d090aa8cc738925b19821b436a91f1364b7830bce",
      "transactionIndex": "0x0",
      "blockHash": "0xb570e1b97e6f928620d55f71c639a4f00f37d2ac27d9272ad71db1f539f715fc",
      "blockNumber": "0x18",
      "gasUsed": "0x1d60a",
      "effectiveGasPrice": "0x2e0a2e8",
      "blobGasPrice": "0x1",
      "from": "0x70997970c51812dc3a010c7d01b50e0d17dc79c8",
      "to": "0x700b6a60ce7eaaea56f065753d8dcb9653dbad35",
      "contractAddress": null
    },
    {
      "status": "0x1",
      "cumulativeGasUsed": "0x1e0fa",
      "logs": [
        {
          "address": "0x700b6a60ce7eaaea56f065753d8dcb9653dbad35",
          "topics": [
            "0x18bb2539629584aae5f6a7a5944b5a92a9161f09110eada6dc02e5de825a7f2f"
          ],
          "data": "0x00000000000000000000000070997970c51812dc3a010c7d01b50e0d17dc79c800000000000000000000000000000000000000000000000000000000000000010000000000000000000000000000000000000000000000004563918244f4000000000000000000000000000000000000000000000000000000000000000000030000000000000000000000000000000000000000000000000000000068bc1b3a",
          "blockHash": "0x862b2f82680615d0adb80978ea4b075f13f3d4467696ce764889637fe2552e41",
          "blockNumber": "0x19",
          "blockTimestamp": "0x68bc1b3a",
          "transactionHash": "0xeeb3feae5102e1f5d4012b1193910c3f4f3d7f3604a4db3a1546dea0fe3d1b2d",
          "transactionIndex": "0x0",
          "logIndex": "0x0",
          "removed": false
        }
      ],
      "logsBloom": "0x00000000000000010000000000000020000000000000000000000000000000000000000000000000000000000000000000000000000000000000000000000000000000000000000000000000000000000000000000000000000000000000000000000000000000000000000000000000000020000000000000000000000000000000000000000000000000000000000000000000000000000000000000000000000800000000000000000000000000040000000000000000000000000000000000000000000000000000000000000000000000000000000000000000000000000001000000000000000000000000000000000000000000000000000000000000",
      "type": "0x2",
      "transactionHash": "0xeeb3feae5102e1f5d4012b1193910c3f4f3d7f3604a4db3a1546dea0fe3d1b2d",
      "transactionIndex": "0x0",
      "blockHash": "0x862b2f82680615d0adb80978ea4b075f13f3d4467696ce764889637fe2552e41",
      "blockNumber": "0x19",
      "gasUsed": "0x1e0fa",
      "effectiveGasPrice": "0x2854ba5",
      "blobGasPrice": "0x1",
      "from": "0x70997970c51812dc3a010c7d01b50e0d17dc79c8",
      "to": "0x700b6a60ce7eaaea56f065753d8dcb9653dbad35",
      "contractAddress": null
    },
    {
      "status": "0x1",
      "cumulativeGasUsed": "0x1e106",
      "logs": [
        {
          "address": "0x700b6a60ce7eaaea56f065753d8dcb9653dbad35",
          "topics": [
            "0x18bb2539629584aae5f6a7a5944b5a92a9161f09110eada6dc02e5de825a7f2f"
          ],
          "data": "0x00000000000000000000000070997970c51812dc3a010c7d01b50e0d17dc79c80000000000000000000000000000000000000000000000000000000000000002000000000000000000000000000000000000000000000001158e460913d0000000000000000000000000000000000000000000000000000000000000000000040000000000000000000000000000000000000000000000000000000068bc1b3a",
          "blockHash": "0xa4008089ca3487e7a03aa8b40d053a5b1d86ca5bae2e541290edc8f6c2b88b16",
          "blockNumber": "0x1a",
          "blockTimestamp": "0x68bc1b3a",
          "transactionHash": "0xa97f922e4fdaa84d5b9e9dbfdb703d6adc733fb0992cf6c91c6047b0f9e905c7",
          "transactionIndex": "0x0",
          "logIndex": "0x0",
          "removed": false
        }
      ],
      "logsBloom": "0x00000000000000010000000000000020000000000000000000000000000000000000000000000000000000000000000000000000000000000000000000000000000000000000000000000000000000000000000000000000000000000000000000000000000000000000000000000000000020000000000000000000000000000000000000000000000000000000000000000000000000000000000000000000000800000000000000000000000000040000000000000000000000000000000000000000000000000000000000000000000000000000000000000000000000000001000000000000000000000000000000000000000000000000000000000000",
      "type": "0x2",
      "transactionHash": "0xa97f922e4fdaa84d5b9e9dbfdb703d6adc733fb0992cf6c91c6047b0f9e905c7",
      "transactionIndex": "0x0",
      "blockHash": "0xa4008089ca3487e7a03aa8b40d053a5b1d86ca5bae2e541290edc8f6c2b88b16",
      "blockNumber": "0x1a",
      "gasUsed": "0x1e106",
      "effectiveGasPrice": "0x2354bb2",
      "blobGasPrice": "0x1",
      "from": "0x70997970c51812dc3a010c7d01b50e0d17dc79c8",
      "to": "0x700b6a60ce7eaaea56f065753d8dcb9653dbad35",
      "contractAddress": null
    },
    {
      "status": "0x1",
      "cumulativeGasUsed": "0x1d60a",
      "logs": [
        {
          "address": "0x700b6a60ce7eaaea56f065753d8dcb9653dbad35",
          "topics": [
            "0x18bb2539629584aae5f6a7a5944b5a92a9161f09110eada6dc02e5de825a7f2f"
          ],
          "data": "0x0000000000000000000000003c44cdddb6a900fa2b585dd299e03d12fa4293bc00000000000000000000000000000000000000000000000000000000000000000000000000000000000000000000000000000000000000008ac7230489e8000000000000000000000000000000000000000000000000000000000000000000020000000000000000000000000000000000000000000000000000000068bc1b3a",
          "blockHash": "0xd74acb82f5d1a27f56e435c2ed832dcd2afeae2587dbbe7a8400bc5d9d216328",
          "blockNumber": "0x1b",
          "blockTimestamp": "0x68bc1b3a",
          "transactionHash": "0x492debb7c561ba449c2f8b0abecb4c40bd09166a5d5640bd3e356743ebcfc578",
          "transactionIndex": "0x0",
          "logIndex": "0x0",
          "removed": false
        }
      ],
      "logsBloom": "0x00000000000000010000000000000020000000000000000000000000000000000000000000000000000000000000000000000000000000000000000000000000000000000000000000000000000000000000000000000000000000000000000000000000000000000000000000000000000020000000000000000000000000000000000000000000000000000000000000000000000000000000000000000000000800000000000000000000000000040000000000000000000000000000000000000000000000000000000000000000000000000000000000000000000000000001000000000000000000000000000000000000000000000000000000000000",
      "type": "0x2",
      "transactionHash": "0x492debb7c561ba449c2f8b0abecb4c40bd09166a5d5640bd3e356743ebcfc578",
      "transactionIndex": "0x0",
      "blockHash": "0xd74acb82f5d1a27f56e435c2ed832dcd2afeae2587dbbe7a8400bc5d9d216328",
      "blockNumber": "0x1b",
      "gasUsed": "0x1d60a",
      "effectiveGasPrice": "0x1ef36be",
      "blobGasPrice": "0x1",
      "from": "0x3c44cdddb6a900fa2b585dd299e03d12fa4293bc",
      "to": "0x700b6a60ce7eaaea56f065753d8dcb9653dbad35",
      "contractAddress": null
    },
    {
      "status": "0x1",
      "cumulativeGasUsed": "0x1e0fa",
      "logs": [
        {
          "address": "0x700b6a60ce7eaaea56f065753d8dcb9653dbad35",
          "topics": [
            "0x18bb2539629584aae5f6a7a5944b5a92a9161f09110eada6dc02e5de825a7f2f"
          ],
          "data": "0x0000000000000000000000003c44cdddb6a900fa2b585dd299e03d12fa4293bc00000000000000000000000000000000000000000000000000000000000000010000000000000000000000000000000000000000000000004563918244f4000000000000000000000000000000000000000000000000000000000000000000030000000000000000000000000000000000000000000000000000000068bc1b3a",
          "blockHash": "0xd7064e12a950b061182e80a3e51b8fafc283bbe94d014175e140a9ffae16a6c6",
          "blockNumber": "0x1c",
          "blockTimestamp": "0x68bc1b3a",
          "transactionHash": "0x4aeb2b90c9d2e6ffba427317eb703a0cf7071bfa97aeb69c8c82075e66766ea2",
          "transactionIndex": "0x0",
          "logIndex": "0x0",
          "removed": false
        }
      ],
      "logsBloom": "0x00000000000000010000000000000020000000000000000000000000000000000000000000000000000000000000000000000000000000000000000000000000000000000000000000000000000000000000000000000000000000000000000000000000000000000000000000000000000020000000000000000000000000000000000000000000000000000000000000000000000000000000000000000000000800000000000000000000000000040000000000000000000000000000000000000000000000000000000000000000000000000000000000000000000000000001000000000000000000000000000000000000000000000000000000000000",
      "type": "0x2",
      "transactionHash": "0x4aeb2b90c9d2e6ffba427317eb703a0cf7071bfa97aeb69c8c82075e66766ea2",
      "transactionIndex": "0x0",
      "blockHash": "0xd7064e12a950b061182e80a3e51b8fafc283bbe94d014175e140a9ffae16a6c6",
      "blockNumber": "0x1c",
      "gasUsed": "0x1e0fa",
      "effectiveGasPrice": "0x1b1cf06",
      "blobGasPrice": "0x1",
      "from": "0x3c44cdddb6a900fa2b585dd299e03d12fa4293bc",
      "to": "0x700b6a60ce7eaaea56f065753d8dcb9653dbad35",
      "contractAddress": null
    },
    {
      "status": "0x1",
      "cumulativeGasUsed": "0x1e106",
      "logs": [
        {
          "address": "0x700b6a60ce7eaaea56f065753d8dcb9653dbad35",
          "topics": [
            "0x18bb2539629584aae5f6a7a5944b5a92a9161f09110eada6dc02e5de825a7f2f"
          ],
          "data": "0x0000000000000000000000003c44cdddb6a900fa2b585dd299e03d12fa4293bc0000000000000000000000000000000000000000000000000000000000000002000000000000000000000000000000000000000000000001158e460913d0000000000000000000000000000000000000000000000000000000000000000000040000000000000000000000000000000000000000000000000000000068bc1b3a",
          "blockHash": "0xa579b5baeed0d586450ab10c5a163f85186945460c8801de558c4979742432eb",
          "blockNumber": "0x1d",
          "blockTimestamp": "0x68bc1b3a",
          "transactionHash": "0xeca3376f269102f3d02bf6a98f5eb53822520f9b9982bcc7ca5c6da1a2df49ff",
          "transactionIndex": "0x0",
          "logIndex": "0x0",
          "removed": false
        }
      ],
      "logsBloom": "0x00000000000000010000000000000020000000000000000000000000000000000000000000000000000000000000000000000000000000000000000000000000000000000000000000000000000000000000000000000000000000000000000000000000000000000000000000000000000020000000000000000000000000000000000000000000000000000000000000000000000000000000000000000000000800000000000000000000000000040000000000000000000000000000000000000000000000000000000000000000000000000000000000000000000000000001000000000000000000000000000000000000000000000000000000000000",
      "type": "0x2",
      "transactionHash": "0xeca3376f269102f3d02bf6a98f5eb53822520f9b9982bcc7ca5c6da1a2df49ff",
      "transactionIndex": "0x0",
      "blockHash": "0xa579b5baeed0d586450ab10c5a163f85186945460c8801de558c4979742432eb",
      "blockNumber": "0x1d",
      "gasUsed": "0x1e106",
      "effectiveGasPrice": "0x17c071a",
      "blobGasPrice": "0x1",
      "from": "0x3c44cdddb6a900fa2b585dd299e03d12fa4293bc",
      "to": "0x700b6a60ce7eaaea56f065753d8dcb9653dbad35",
      "contractAddress": null
    },
    {
      "status": "0x1",
      "cumulativeGasUsed": "0x1d60a",
      "logs": [
        {
          "address": "0x700b6a60ce7eaaea56f065753d8dcb9653dbad35",
          "topics": [
            "0x18bb2539629584aae5f6a7a5944b5a92a9161f09110eada6dc02e5de825a7f2f"
          ],
          "data": "0x00000000000000000000000090f79bf6eb2c4f870365e785982e1f101e93b90600000000000000000000000000000000000000000000000000000000000000000000000000000000000000000000000000000000000000008ac7230489e8000000000000000000000000000000000000000000000000000000000000000000020000000000000000000000000000000000000000000000000000000068bc1b3a",
          "blockHash": "0x7f6bd6040b9e65c5e7e5aecac7e92f1fed01762afa17411ecce2c6d5dd59c08c",
          "blockNumber": "0x1e",
          "blockTimestamp": "0x68bc1b3a",
          "transactionHash": "0xae2c6e28d20c8e1c49d073eef31592547474fc3deff42ab70f0993019d87f671",
          "transactionIndex": "0x0",
          "logIndex": "0x0",
          "removed": false
        }
      ],
      "logsBloom": "0x00000000000000010000000000000020000000000000000000000000000000000000000000000000000000000000000000000000000000000000000000000000000000000000000000000000000000000000000000000000000000000000000000000000000000000000000000000000000020000000000000000000000000000000000000000000000000000000000000000000000000000000000000000000000800000000000000000000000000040000000000000000000000000000000000000000000000000000000000000000000000000000000000000000000000000001000000000000000000000000000000000000000000000000000000000000",
      "type": "0x2",
      "transactionHash": "0xae2c6e28d20c8e1c49d073eef31592547474fc3deff42ab70f0993019d87f671",
      "transactionIndex": "0x0",
      "blockHash": "0x7f6bd6040b9e65c5e7e5aecac7e92f1fed01762afa17411ecce2c6d5dd59c08c",
      "blockNumber": "0x1e",
      "gasUsed": "0x1d60a",
      "effectiveGasPrice": "0x14cea0d",
      "blobGasPrice": "0x1",
      "from": "0x90f79bf6eb2c4f870365e785982e1f101e93b906",
      "to": "0x700b6a60ce7eaaea56f065753d8dcb9653dbad35",
      "contractAddress": null
    },
    {
      "status": "0x1",
      "cumulativeGasUsed": "0x1e0fa",
      "logs": [
        {
          "address": "0x700b6a60ce7eaaea56f065753d8dcb9653dbad35",
          "topics": [
            "0x18bb2539629584aae5f6a7a5944b5a92a9161f09110eada6dc02e5de825a7f2f"
          ],
          "data": "0x00000000000000000000000090f79bf6eb2c4f870365e785982e1f101e93b90600000000000000000000000000000000000000000000000000000000000000010000000000000000000000000000000000000000000000004563918244f4000000000000000000000000000000000000000000000000000000000000000000030000000000000000000000000000000000000000000000000000000068bc1b3a",
          "blockHash": "0x2a994c21683c9e6031af93011714c86d24cf8bebd484442fd11b5605f6f92099",
          "blockNumber": "0x1f",
          "blockTimestamp": "0x68bc1b3a",
          "transactionHash": "0x89d3420135531fecf6ac8aa3adaf890e728e781ac8a17990c5b10ddb7e936c2c",
          "transactionIndex": "0x0",
          "logIndex": "0x0",
          "removed": false
        }
      ],
      "logsBloom": "0x00000000000000010000000000000020000000000000000000000000000000000000000000000000000000000000000000000000000000000000000000000000000000000000000000000000000000000000000000000000000000000000000000000000000000000000000000000000000020000000000000000000000000000000000000000000000000000000000000000000000000000000000000000000000800000000000000000000000000040000000000000000000000000000000000000000000000000000000000000000000000000000000000000000000000000001000000000000000000000000000000000000000000000000000000000000",
      "type": "0x2",
      "transactionHash": "0x89d3420135531fecf6ac8aa3adaf890e728e781ac8a17990c5b10ddb7e936c2c",
      "transactionIndex": "0x0",
      "blockHash": "0x2a994c21683c9e6031af93011714c86d24cf8bebd484442fd11b5605f6f92099",
      "blockNumber": "0x1f",
      "gasUsed": "0x1e0fa",
      "effectiveGasPrice": "0x123a242",
      "blobGasPrice": "0x1",
      "from": "0x90f79bf6eb2c4f870365e785982e1f101e93b906",
      "to": "0x700b6a60ce7eaaea56f065753d8dcb9653dbad35",
      "contractAddress": null
    },
    {
      "status": "0x1",
      "cumulativeGasUsed": "0x1e106",
      "logs": [
        {
          "address": "0x700b6a60ce7eaaea56f065753d8dcb9653dbad35",
          "topics": [
            "0x18bb2539629584aae5f6a7a5944b5a92a9161f09110eada6dc02e5de825a7f2f"
          ],
          "data": "0x00000000000000000000000090f79bf6eb2c4f870365e785982e1f101e93b9060000000000000000000000000000000000000000000000000000000000000002000000000000000000000000000000000000000000000001158e460913d0000000000000000000000000000000000000000000000000000000000000000000040000000000000000000000000000000000000000000000000000000068bc1b3a",
          "blockHash": "0xd76ab0ce809dabb69d1991d0bc0b9725f29293462ebcd4dad720f19ce11b558a",
          "blockNumber": "0x20",
          "blockTimestamp": "0x68bc1b3a",
          "transactionHash": "0xb382c101291aab24b449e71d85d3be0771209a2fe1905b292b00fd80b1da7f7d",
          "transactionIndex": "0x0",
          "logIndex": "0x0",
          "removed": false
        }
      ],
      "logsBloom": "0x00000000000000010000000000000020000000000000000000000000000000000000000000000000000000000000000000000000000000000000000000000000000000000000000000000000000000000000000000000000000000000000000000000000000000000000000000000000000020000000000000000000000000000000000000000000000000000000000000000000000000000000000000000000000800000000000000000000000000040000000000000000000000000000000000000000000000000000000000000000000000000000000000000000000000000001000000000000000000000000000000000000000000000000000000000000",
      "type": "0x2",
      "transactionHash": "0xb382c101291aab24b449e71d85d3be0771209a2fe1905b292b00fd80b1da7f7d",
      "transactionIndex": "0x0",
      "blockHash": "0xd76ab0ce809dabb69d1991d0bc0b9725f29293462ebcd4dad720f19ce11b558a",
      "blockNumber": "0x20",
      "gasUsed": "0x1e106",
      "effectiveGasPrice": "0xff7a95",
      "blobGasPrice": "0x1",
      "from": "0x90f79bf6eb2c4f870365e785982e1f101e93b906",
      "to": "0x700b6a60ce7eaaea56f065753d8dcb9653dbad35",
      "contractAddress": null
    },
    {
      "status": "0x1",
      "cumulativeGasUsed": "0x1d60a",
      "logs": [
        {
          "address": "0x700b6a60ce7eaaea56f065753d8dcb9653dbad35",
          "topics": [
            "0x18bb2539629584aae5f6a7a5944b5a92a9161f09110eada6dc02e5de825a7f2f"
          ],
          "data": "0x00000000000000000000000015d34aaf54267db7d7c367839aaf71a00a2c6a6500000000000000000000000000000000000000000000000000000000000000000000000000000000000000000000000000000000000000008ac7230489e8000000000000000000000000000000000000000000000000000000000000000000020000000000000000000000000000000000000000000000000000000068bc1b3b",
          "blockHash": "0x54f237fe686dbcd911b4f74203fb65a31b412e7877d4623759696e5a53dc6ff4",
          "blockNumber": "0x21",
          "blockTimestamp": "0x68bc1b3b",
          "transactionHash": "0x90d482117df20bc74bcc7c424812b45f21bce8d0401445ea9d8371bf1883bb3d",
          "transactionIndex": "0x0",
          "logIndex": "0x0",
          "removed": false
        }
      ],
      "logsBloom": "0x00000000000000010000000000000020000000000000000000000000000000000000000000000000000000000000000000000000000000000000000000000000000000000000000000000000000000000000000000000000000000000000000000000000000000000000000000000000000020000000000000000000000000000000000000000000000000000000000000000000000000000000000000000000000800000000000000000000000000040000000000000000000000000000000000000000000000000000000000000000000000000000000000000000000000000001000000000000000000000000000000000000000000000000000000000000",
      "type": "0x2",
      "transactionHash": "0x90d482117df20bc74bcc7c424812b45f21bce8d0401445ea9d8371bf1883bb3d",
      "transactionIndex": "0x0",
      "blockHash": "0x54f237fe686dbcd911b4f74203fb65a31b412e7877d4623759696e5a53dc6ff4",
      "blockNumber": "0x21",
      "gasUsed": "0x1d60a",
      "effectiveGasPrice": "0xdfce60",
      "blobGasPrice": "0x1",
      "from": "0x15d34aaf54267db7d7c367839aaf71a00a2c6a65",
      "to": "0x700b6a60ce7eaaea56f065753d8dcb9653dbad35",
      "contractAddress": null
    },
    {
      "status": "0x1",
      "cumulativeGasUsed": "0x1e0fa",
      "logs": [
        {
          "address": "0x700b6a60ce7eaaea56f065753d8dcb9653dbad35",
          "topics": [
            "0x18bb2539629584aae5f6a7a5944b5a92a9161f09110eada6dc02e5de825a7f2f"
          ],
          "data": "0x00000000000000000000000015d34aaf54267db7d7c367839aaf71a00a2c6a6500000000000000000000000000000000000000000000000000000000000000010000000000000000000000000000000000000000000000004563918244f4000000000000000000000000000000000000000000000000000000000000000000030000000000000000000000000000000000000000000000000000000068bc1b3b",
          "blockHash": "0x4058aa9f572880c3cdf1ea48c2e202d510f24bb95a8f6392254efa270301fc73",
          "blockNumber": "0x22",
          "blockTimestamp": "0x68bc1b3b",
          "transactionHash": "0xdc9c01b76cec6e3ca54f9406ce92bc7209065ab8aa21d404127e3adb2b0b0db6",
          "transactionIndex": "0x0",
          "logIndex": "0x0",
          "removed": false
        }
      ],
      "logsBloom": "0x00000000000000010000000000000020000000000000000000000000000000000000000000000000000000000000000000000000000000000000000000000000000000000000000000000000000000000000000000000000000000000000000000000000000000000000000000000000000020000000000000000000000000000000000000000000000000000000000000000000000000000000000000000000000800000000000000000000000000040000000000000000000000000000000000000000000000000000000000000000000000000000000000000000000000000001000000000000000000000000000000000000000000000000000000000000",
      "type": "0x2",
      "transactionHash": "0xdc9c01b76cec6e3ca54f9406ce92bc7209065ab8aa21d404127e3adb2b0b0db6",
      "transactionIndex": "0x0",
      "blockHash": "0x4058aa9f572880c3cdf1ea48c2e202d510f24bb95a8f6392254efa270301fc73",
      "blockNumber": "0x22",
      "gasUsed": "0x1e0fa",
      "effectiveGasPrice": "0xc40e08",
      "blobGasPrice": "0x1",
      "from": "0x15d34aaf54267db7d7c367839aaf71a00a2c6a65",
      "to": "0x700b6a60ce7eaaea56f065753d8dcb9653dbad35",
      "contractAddress": null
    },
    {
      "status": "0x1",
      "cumulativeGasUsed": "0x1e106",
      "logs": [
        {
          "address": "0x700b6a60ce7eaaea56f065753d8dcb9653dbad35",
          "topics": [
            "0x18bb2539629584aae5f6a7a5944b5a92a9161f09110eada6dc02e5de825a7f2f"
          ],
          "data": "0x00000000000000000000000015d34aaf54267db7d7c367839aaf71a00a2c6a650000000000000000000000000000000000000000000000000000000000000002000000000000000000000000000000000000000000000001158e460913d0000000000000000000000000000000000000000000000000000000000000000000040000000000000000000000000000000000000000000000000000000068bc1b3b",
          "blockHash": "0xfd7c2b7c778f3eebadb8d7c0d48f4bbc485b84ef214dff4f7305b87a0ffd1cab",
          "blockNumber": "0x23",
          "blockTimestamp": "0x68bc1b3b",
          "transactionHash": "0xb0cd9dfce3ab51f9e31c9ecab450441a989e67305b0ce70965d52c3e807b3072",
          "transactionIndex": "0x0",
          "logIndex": "0x0",
          "removed": false
        }
      ],
      "logsBloom": "0x00000000000000010000000000000020000000000000000000000000000000000000000000000000000000000000000000000000000000000000000000000000000000000000000000000000000000000000000000000000000000000000000000000000000000000000000000000000000020000000000000000000000000000000000000000000000000000000000000000000000000000000000000000000000800000000000000000000000000040000000000000000000000000000000000000000000000000000000000000000000000000000000000000000000000000001000000000000000000000000000000000000000000000000000000000000",
      "type": "0x2",
      "transactionHash": "0xb0cd9dfce3ab51f9e31c9ecab450441a989e67305b0ce70965d52c3e807b3072",
      "transactionIndex": "0x0",
      "blockHash": "0xfd7c2b7c778f3eebadb8d7c0d48f4bbc485b84ef214dff4f7305b87a0ffd1cab",
      "blockNumber": "0x23",
      "gasUsed": "0x1e106",
      "effectiveGasPrice": "0xabbfc7",
      "blobGasPrice": "0x1",
      "from": "0x15d34aaf54267db7d7c367839aaf71a00a2c6a65",
      "to": "0x700b6a60ce7eaaea56f065753d8dcb9653dbad35",
      "contractAddress": null
    }
  ],
  "libraries": [],
  "pending": [],
  "returns": {},
  "timestamp": 1757158203,
  "chain": 1,
  "commit": "f22f008"
}